{
  "address": "0x2D0bd1eb6e8577A2e73C7Fd772e587a0dEc9A9c3",
  "abi": [
    {
      "anonymous": false,
      "inputs": [
        {
          "indexed": true,
          "internalType": "address",
          "name": "owner",
          "type": "address"
        },
        {
          "indexed": true,
          "internalType": "address",
          "name": "spender",
          "type": "address"
        },
        {
          "indexed": false,
          "internalType": "uint256",
          "name": "value",
          "type": "uint256"
        }
      ],
      "name": "Approval",
      "type": "event"
    },
    {
      "anonymous": false,
      "inputs": [
        {
          "indexed": true,
          "internalType": "address",
          "name": "previousOwner",
          "type": "address"
        },
        {
          "indexed": true,
          "internalType": "address",
          "name": "newOwner",
          "type": "address"
        }
      ],
      "name": "OwnershipTransferred",
      "type": "event"
    },
    {
      "anonymous": false,
      "inputs": [
        {
          "indexed": false,
          "internalType": "address",
          "name": "account",
          "type": "address"
        }
      ],
      "name": "Paused",
      "type": "event"
    },
    {
      "anonymous": false,
      "inputs": [
        {
          "indexed": true,
          "internalType": "bytes32",
          "name": "role",
          "type": "bytes32"
        },
        {
          "indexed": true,
          "internalType": "bytes32",
          "name": "previousAdminRole",
          "type": "bytes32"
        },
        {
          "indexed": true,
          "internalType": "bytes32",
          "name": "newAdminRole",
          "type": "bytes32"
        }
      ],
      "name": "RoleAdminChanged",
      "type": "event"
    },
    {
      "anonymous": false,
      "inputs": [
        {
          "indexed": true,
          "internalType": "bytes32",
          "name": "role",
          "type": "bytes32"
        },
        {
          "indexed": true,
          "internalType": "address",
          "name": "account",
          "type": "address"
        },
        {
          "indexed": true,
          "internalType": "address",
          "name": "sender",
          "type": "address"
        }
      ],
      "name": "RoleGranted",
      "type": "event"
    },
    {
      "anonymous": false,
      "inputs": [
        {
          "indexed": true,
          "internalType": "bytes32",
          "name": "role",
          "type": "bytes32"
        },
        {
          "indexed": true,
          "internalType": "address",
          "name": "account",
          "type": "address"
        },
        {
          "indexed": true,
          "internalType": "address",
          "name": "sender",
          "type": "address"
        }
      ],
      "name": "RoleRevoked",
      "type": "event"
    },
    {
      "anonymous": false,
      "inputs": [
        {
          "indexed": true,
          "internalType": "address",
          "name": "from",
          "type": "address"
        },
        {
          "indexed": true,
          "internalType": "address",
          "name": "to",
          "type": "address"
        },
        {
          "indexed": false,
          "internalType": "uint256",
          "name": "value",
          "type": "uint256"
        }
      ],
      "name": "Transfer",
      "type": "event"
    },
    {
      "anonymous": false,
      "inputs": [
        {
          "indexed": false,
          "internalType": "address",
          "name": "account",
          "type": "address"
        }
      ],
      "name": "Unpaused",
      "type": "event"
    },
    {
      "anonymous": false,
      "inputs": [
        {
          "indexed": false,
          "internalType": "address",
          "name": "newValue",
          "type": "address"
        }
      ],
      "name": "feeWalletAddressChanged",
      "type": "event"
    },
    {
      "anonymous": false,
      "inputs": [
        {
          "indexed": false,
          "internalType": "uint32",
          "name": "newValue",
          "type": "uint32"
        }
      ],
      "name": "mintingFeePercentChanged",
      "type": "event"
    },
    {
      "inputs": [],
      "name": "DEFAULT_ADMIN_ROLE",
      "outputs": [
        {
          "internalType": "bytes32",
          "name": "",
          "type": "bytes32"
        }
      ],
      "stateMutability": "view",
      "type": "function"
    },
    {
      "inputs": [],
      "name": "FEE_EXCLUDED_ROLE",
      "outputs": [
        {
          "internalType": "bytes32",
          "name": "",
          "type": "bytes32"
        }
      ],
      "stateMutability": "view",
      "type": "function"
    },
    {
      "inputs": [],
      "name": "MINTER_ROLE",
      "outputs": [
        {
          "internalType": "bytes32",
          "name": "",
          "type": "bytes32"
        }
      ],
      "stateMutability": "view",
      "type": "function"
    },
    {
      "inputs": [],
      "name": "PAUSER_ROLE",
      "outputs": [
        {
          "internalType": "bytes32",
          "name": "",
          "type": "bytes32"
        }
      ],
      "stateMutability": "view",
      "type": "function"
    },
    {
      "inputs": [],
      "name": "__initialize",
      "outputs": [],
      "stateMutability": "nonpayable",
      "type": "function"
    },
    {
      "inputs": [
        {
          "internalType": "address",
          "name": "owner",
          "type": "address"
        },
        {
          "internalType": "address",
          "name": "spender",
          "type": "address"
        }
      ],
      "name": "allowance",
      "outputs": [
        {
          "internalType": "uint256",
          "name": "",
          "type": "uint256"
        }
      ],
      "stateMutability": "view",
      "type": "function"
    },
    {
      "inputs": [
        {
          "internalType": "address",
          "name": "spender",
          "type": "address"
        },
        {
          "internalType": "uint256",
          "name": "amount",
          "type": "uint256"
        }
      ],
      "name": "approve",
      "outputs": [
        {
          "internalType": "bool",
          "name": "",
          "type": "bool"
        }
      ],
      "stateMutability": "nonpayable",
      "type": "function"
    },
    {
      "inputs": [
        {
          "internalType": "address",
          "name": "account",
          "type": "address"
        }
      ],
      "name": "balanceOf",
      "outputs": [
        {
          "internalType": "uint256",
          "name": "",
          "type": "uint256"
        }
      ],
      "stateMutability": "view",
      "type": "function"
    },
    {
      "inputs": [
        {
          "internalType": "uint256",
          "name": "amount",
          "type": "uint256"
        }
      ],
      "name": "burn",
      "outputs": [],
      "stateMutability": "nonpayable",
      "type": "function"
    },
    {
      "inputs": [
        {
          "internalType": "address",
          "name": "account",
          "type": "address"
        },
        {
          "internalType": "uint256",
          "name": "amount",
          "type": "uint256"
        }
      ],
      "name": "burnFrom",
      "outputs": [],
      "stateMutability": "nonpayable",
      "type": "function"
    },
    {
      "inputs": [],
      "name": "decimals",
      "outputs": [
        {
          "internalType": "uint8",
          "name": "",
          "type": "uint8"
        }
      ],
      "stateMutability": "view",
      "type": "function"
    },
    {
      "inputs": [
        {
          "internalType": "address",
          "name": "spender",
          "type": "address"
        },
        {
          "internalType": "uint256",
          "name": "subtractedValue",
          "type": "uint256"
        }
      ],
      "name": "decreaseAllowance",
      "outputs": [
        {
          "internalType": "bool",
          "name": "",
          "type": "bool"
        }
      ],
      "stateMutability": "nonpayable",
      "type": "function"
    },
    {
      "inputs": [],
      "name": "feeAddress",
      "outputs": [
        {
          "internalType": "address",
          "name": "",
          "type": "address"
        }
      ],
      "stateMutability": "view",
      "type": "function"
    },
    {
      "inputs": [
        {
          "internalType": "bytes32",
          "name": "role",
          "type": "bytes32"
        }
      ],
      "name": "getRoleAdmin",
      "outputs": [
        {
          "internalType": "bytes32",
          "name": "",
          "type": "bytes32"
        }
      ],
      "stateMutability": "view",
      "type": "function"
    },
    {
      "inputs": [
        {
          "internalType": "bytes32",
          "name": "role",
          "type": "bytes32"
        },
        {
          "internalType": "uint256",
          "name": "index",
          "type": "uint256"
        }
      ],
      "name": "getRoleMember",
      "outputs": [
        {
          "internalType": "address",
          "name": "",
          "type": "address"
        }
      ],
      "stateMutability": "view",
      "type": "function"
    },
    {
      "inputs": [
        {
          "internalType": "bytes32",
          "name": "role",
          "type": "bytes32"
        }
      ],
      "name": "getRoleMemberCount",
      "outputs": [
        {
          "internalType": "uint256",
          "name": "",
          "type": "uint256"
        }
      ],
      "stateMutability": "view",
      "type": "function"
    },
    {
      "inputs": [
        {
          "internalType": "bytes32",
          "name": "role",
          "type": "bytes32"
        },
        {
          "internalType": "address",
          "name": "account",
          "type": "address"
        }
      ],
      "name": "grantRole",
      "outputs": [],
      "stateMutability": "nonpayable",
      "type": "function"
    },
    {
      "inputs": [
        {
          "internalType": "bytes32",
          "name": "role",
          "type": "bytes32"
        },
        {
          "internalType": "address",
          "name": "account",
          "type": "address"
        }
      ],
      "name": "hasRole",
      "outputs": [
        {
          "internalType": "bool",
          "name": "",
          "type": "bool"
        }
      ],
      "stateMutability": "view",
      "type": "function"
    },
    {
      "inputs": [
        {
          "internalType": "address",
          "name": "spender",
          "type": "address"
        },
        {
          "internalType": "uint256",
          "name": "addedValue",
          "type": "uint256"
        }
      ],
      "name": "increaseAllowance",
      "outputs": [
        {
          "internalType": "bool",
          "name": "",
          "type": "bool"
        }
      ],
      "stateMutability": "nonpayable",
      "type": "function"
    },
    {
      "inputs": [
        {
          "internalType": "string",
          "name": "name",
          "type": "string"
        },
        {
          "internalType": "string",
          "name": "symbol",
          "type": "string"
        }
      ],
      "name": "initialize",
      "outputs": [],
      "stateMutability": "nonpayable",
      "type": "function"
    },
    {
      "inputs": [
        {
          "internalType": "address",
          "name": "to",
          "type": "address"
        },
        {
          "internalType": "uint256",
          "name": "amount",
          "type": "uint256"
        }
      ],
      "name": "mint",
      "outputs": [],
      "stateMutability": "nonpayable",
      "type": "function"
    },
    {
      "inputs": [
        {
          "internalType": "address",
          "name": "recipient",
          "type": "address"
        },
        {
          "internalType": "uint256",
          "name": "amount",
          "type": "uint256"
        }
      ],
      "name": "mintWithFee",
      "outputs": [],
      "stateMutability": "nonpayable",
      "type": "function"
    },
    {
      "inputs": [
        {
          "internalType": "address",
          "name": "recipient",
          "type": "address"
        },
        {
          "internalType": "uint256",
          "name": "amount",
          "type": "uint256"
        },
        {
          "internalType": "bool",
          "name": "withFee",
          "type": "bool"
        }
      ],
      "name": "mintWithoutDecimals",
      "outputs": [],
      "stateMutability": "nonpayable",
      "type": "function"
    },
    {
      "inputs": [],
      "name": "name",
      "outputs": [
        {
          "internalType": "string",
          "name": "",
          "type": "string"
        }
      ],
      "stateMutability": "view",
      "type": "function"
    },
    {
      "inputs": [],
      "name": "owner",
      "outputs": [
        {
          "internalType": "address",
          "name": "",
          "type": "address"
        }
      ],
      "stateMutability": "view",
      "type": "function"
    },
    {
      "inputs": [],
      "name": "pause",
      "outputs": [],
      "stateMutability": "nonpayable",
      "type": "function"
    },
    {
      "inputs": [],
      "name": "paused",
      "outputs": [
        {
          "internalType": "bool",
          "name": "",
          "type": "bool"
        }
      ],
      "stateMutability": "view",
      "type": "function"
    },
    {
      "inputs": [],
      "name": "renounceOwnership",
      "outputs": [],
      "stateMutability": "nonpayable",
      "type": "function"
    },
    {
      "inputs": [
        {
          "internalType": "bytes32",
          "name": "role",
          "type": "bytes32"
        },
        {
          "internalType": "address",
          "name": "account",
          "type": "address"
        }
      ],
      "name": "renounceRole",
      "outputs": [],
      "stateMutability": "nonpayable",
      "type": "function"
    },
    {
      "inputs": [
        {
          "internalType": "bytes32",
          "name": "role",
          "type": "bytes32"
        },
        {
          "internalType": "address",
          "name": "account",
          "type": "address"
        }
      ],
      "name": "revokeRole",
      "outputs": [],
      "stateMutability": "nonpayable",
      "type": "function"
    },
    {
      "inputs": [
        {
          "internalType": "address",
          "name": "_feeAddress",
          "type": "address"
        }
      ],
      "name": "setFeeWalletAddress",
      "outputs": [],
      "stateMutability": "nonpayable",
      "type": "function"
    },
    {
      "inputs": [
        {
          "internalType": "uint32",
          "name": "_tokenTransferFeeDivisor",
          "type": "uint32"
        }
      ],
      "name": "setTransferFeeDivisor",
      "outputs": [],
      "stateMutability": "nonpayable",
      "type": "function"
    },
    {
      "inputs": [
        {
          "internalType": "bytes4",
          "name": "interfaceId",
          "type": "bytes4"
        }
      ],
      "name": "supportsInterface",
      "outputs": [
        {
          "internalType": "bool",
          "name": "",
          "type": "bool"
        }
      ],
      "stateMutability": "view",
      "type": "function"
    },
    {
      "inputs": [],
      "name": "symbol",
      "outputs": [
        {
          "internalType": "string",
          "name": "",
          "type": "string"
        }
      ],
      "stateMutability": "view",
      "type": "function"
    },
    {
      "inputs": [],
      "name": "tokenTransferFeeDivisor",
      "outputs": [
        {
          "internalType": "uint32",
          "name": "",
          "type": "uint32"
        }
      ],
      "stateMutability": "view",
      "type": "function"
    },
    {
      "inputs": [],
      "name": "totalSupply",
      "outputs": [
        {
          "internalType": "uint256",
          "name": "",
          "type": "uint256"
        }
      ],
      "stateMutability": "view",
      "type": "function"
    },
    {
      "inputs": [
        {
          "internalType": "address",
          "name": "recipient",
          "type": "address"
        },
        {
          "internalType": "uint256",
          "name": "amount",
          "type": "uint256"
        }
      ],
      "name": "transfer",
      "outputs": [
        {
          "internalType": "bool",
          "name": "",
          "type": "bool"
        }
      ],
      "stateMutability": "nonpayable",
      "type": "function"
    },
    {
      "inputs": [
        {
          "internalType": "address",
          "name": "sender",
          "type": "address"
        },
        {
          "internalType": "address",
          "name": "recipient",
          "type": "address"
        },
        {
          "internalType": "uint256",
          "name": "amount",
          "type": "uint256"
        }
      ],
      "name": "transferFrom",
      "outputs": [
        {
          "internalType": "bool",
          "name": "",
          "type": "bool"
        }
      ],
      "stateMutability": "nonpayable",
      "type": "function"
    },
    {
      "inputs": [
        {
          "internalType": "address",
          "name": "newOwner",
          "type": "address"
        }
      ],
      "name": "transferOwnership",
      "outputs": [],
      "stateMutability": "nonpayable",
      "type": "function"
    },
    {
      "inputs": [],
      "name": "unpause",
      "outputs": [],
      "stateMutability": "nonpayable",
      "type": "function"
    }
  ],
  "transactionHash": "0xd1b91aaeb6734579691afe212a401d504c19c7c8d953ebf16f9b9b4b72e3c354",
  "args": [],
  "solcInputHash": "728ea576e780d152dd19f8e1076b4a03",
  "bytecode": "0x608060405234801561001057600080fd5b506130e7806100206000396000f3fe608060405234801561001057600080fd5b50600436106102c85760003560e01c80635d520e641161017b578063a457c2d7116100d8578063d547741f1161008c578063e63ab1e911610071578063e63ab1e91461054b578063f2fde38b14610553578063f80ce32b14610566576102c8565b8063d547741f14610525578063dd62ed3e14610538576102c8565b8063a9059cbb116100bd578063a9059cbb146104f7578063ca15c8731461050a578063d53913931461051d576102c8565b8063a457c2d7146104d1578063a5c273f9146104e4576102c8565b80638da5cb5b1161012f57806391d148541161011457806391d14854146104ae57806395d89b41146104c1578063a217fddf146104c9576102c8565b80638da5cb5b146104935780639010d07c1461049b576102c8565b8063715018a611610160578063715018a61461047057806379cc6790146104785780638456cb591461048b576102c8565b80635d520e641461044a57806370a082311461045d576102c8565b806331503ec41161022957806341275358116101dd57806349178ad5116101c257806349178ad51461041c5780634cd88b761461042f5780635c975abb14610442576102c8565b806341275358146103f457806342966c6814610409576102c8565b8063395093511161020e57806339509351146103c65780633f4ba83a146103d957806340c10f19146103e1576102c8565b806331503ec4146103a057806336568abe146103b3576102c8565b806323b872dd116102805780632dd8175a116102655780632dd8175a1461036e5780632f2ff15d14610376578063313ce5671461038b576102c8565b806323b872dd14610348578063248a9ca31461035b576102c8565b8063095ea7b3116102b1578063095ea7b31461030b5780631804cb041461031e57806318160ddd14610333576102c8565b806301ffc9a7146102cd57806306fdde03146102f6575b600080fd5b6102e06102db366004612491565b61056e565b6040516102ed91906125eb565b60405180910390f35b6102fe6105cc565b6040516102ed91906125ff565b6102e06103193660046123ca565b61065e565b61032661067c565b6040516102ed9190612f76565b61033b610689565b6040516102ed91906125f6565b6102e061035636600461238f565b61068f565b61033b610369366004612436565b61072f565b61033b610744565b61038961038436600461244e565b610768565b005b61039361078f565b6040516102ed9190612f87565b6103896103ae366004612343565b610794565b6103896103c136600461244e565b610865565b6102e06103d43660046123ca565b610887565b6103896108d6565b6103896103ef3660046123ca565b610928565b6103fc61097e565b6040516102ed91906125d7565b610389610417366004612436565b610996565b61038961042a366004612532565b6109aa565b61038961043d3660046124d1565b610a60565b6102e0610ae0565b6103896104583660046123ca565b610aea565b61033b61046b366004612343565b610b47565b610389610b62565b6103896104863660046123ca565b610bfa565b610389610c4a565b6103fc610c9a565b6103fc6104a9366004612470565b610caa565b6102e06104bc36600461244e565b610cc9565b6102fe610cf4565b61033b610d03565b6102e06104df3660046123ca565b610d08565b6103896104f23660046123f3565b610d83565b6102e06105053660046123ca565b610de3565b61033b610518366004612436565b610df7565b61033b610e0e565b61038961053336600461244e565b610e32565b61033b61054636600461235d565b610e3c565b61033b610e67565b610389610561366004612343565b610e8b565b610389610f5b565b60007fffffffff0000000000000000000000000000000000000000000000000000000082167f5a05180f0000000000000000000000000000000000000000000000000000000014806105c457506105c482611043565b90505b919050565b606060cc80546105db9061304a565b80601f01602080910402602001604051908101604052809291908181526020018280546106079061304a565b80156106545780601f1061062957610100808354040283529160200191610654565b820191906000526020600020905b81548152906001019060200180831161063757829003601f168201915b5050505050905090565b600061067261066b611099565b848461109d565b5060015b92915050565b6101f55463ffffffff1681565b60cb5490565b600061069c848484611151565b6001600160a01b038416600090815260ca60205260408120816106bd611099565b6001600160a01b03166001600160a01b03168152602001908152602001600020549050828110156107095760405162461bcd60e51b815260040161070090612aae565b60405180910390fd5b61072485610715611099565b61071f8685612fec565b61109d565b506001949350505050565b60009081526065602052604090206001015490565b7fbcaa5c4620c62b2fedc77ef4fe401724814aeef811d907416a737179a85b1ab281565b61077282826111c4565b600082815260976020526040902061078a90826111e8565b505050565b601290565b6107a160006104bc611099565b6107bd5760405162461bcd60e51b815260040161070090612d11565b6001600160a01b0381166107e35760405162461bcd60e51b8152600401610700906129bd565b6101f580547fffffffffffffffff0000000000000000000000000000000000000000ffffffff166401000000006001600160a01b03848116820292909217928390556040517f6f5114b3e5960d863abb3c1a60db83d21c561b7818cdf638383e9b9ea40238f99361085a93929004909116906125d7565b60405180910390a150565b61086f82826111fd565b600082815260976020526040902061078a908261123f565b6000610672610894611099565b848460ca60006108a2611099565b6001600160a01b03908116825260208083019390935260409182016000908120918b168152925290205461071f9190612f95565b6109027f65d7a28e3265b37a6474929f336521b332c1681b933f6cb9f3376673440d862a6104bc611099565b61091e5760405162461bcd60e51b815260040161070090612812565b610926611254565b565b6109547f9f2df0fed2c77648de5860a4cc508cd0818c85b8b8a1ab4ceeef8d981c8956a66104bc611099565b6109705760405162461bcd60e51b815260040161070090612b40565b61097a82826112c3565b5050565b6101f55464010000000090046001600160a01b031681565b6109a76109a1611099565b82611383565b50565b6109b760006104bc611099565b6109d35760405162461bcd60e51b815260040161070090612dcb565b60028163ffffffff16116109f95760405162461bcd60e51b815260040161070090612758565b6101f580547fffffffffffffffffffffffffffffffffffffffffffffffffffffffff000000001663ffffffff83811691909117918290556040517fb4fb343f6573d5bcc1c7ab700665911f5ed2699ecfc6a7d1b1af8405409b22ec9261085a921690612f76565b600054610100900460ff1680610a79575060005460ff16155b610a955760405162461bcd60e51b8152600401610700906129f4565b600054610100900460ff16158015610ac0576000805460ff1961ff0019909116610100171660011790555b610aca8383611469565b801561078a576000805461ff0019169055505050565b61012d5460ff1690565b610af760006104bc611099565b610b135760405162461bcd60e51b815260040161070090612a51565b6101f554610b3a9064010000000090046001600160a01b0316610b3583611515565b6112c3565b61097a82610b3583611531565b6001600160a01b0316600090815260c9602052604090205490565b610b6a611099565b6001600160a01b0316610b7b610c9a565b6001600160a01b031614610ba15760405162461bcd60e51b815260040161070090612b0b565b6101c3546040516000916001600160a01b0316907f8be0079c531659141344cd1fd0a4f28419497f9722a3daafe3b4186f6b6457e0908390a36101c3805473ffffffffffffffffffffffffffffffffffffffff19169055565b6000610c0883610546611099565b905081811015610c2a5760405162461bcd60e51b815260040161070090612b9d565b610c4083610c36611099565b61071f8585612fec565b61078a8383611383565b610c767f65d7a28e3265b37a6474929f336521b332c1681b933f6cb9f3376673440d862a6104bc611099565b610c925760405162461bcd60e51b815260040161070090612d6e565b610926611546565b6101c3546001600160a01b031690565b6000828152609760205260408120610cc290836115a2565b9392505050565b60009182526065602090815260408084206001600160a01b0393909316845291905290205460ff1690565b606060cd80546105db9061304a565b600081565b60008060ca6000610d17611099565b6001600160a01b0390811682526020808301939093526040918201600090812091881681529252902054905082811015610d635760405162461bcd60e51b815260040161070090612e28565b610d79610d6e611099565b8561071f8685612fec565b5060019392505050565b610d9060006104bc611099565b610dac5760405162461bcd60e51b815260040161070090612a51565b8015610dcd57610dc88361045884670de0b6b3a7640000612fcd565b61078a565b61078a83610b3584670de0b6b3a7640000612fcd565b6000610672610df0611099565b8484611151565b60008181526097602052604081206105c4906115ae565b7f9f2df0fed2c77648de5860a4cc508cd0818c85b8b8a1ab4ceeef8d981c8956a681565b61086f82826115b9565b6001600160a01b03918216600090815260ca6020908152604080832093909416825291909152205490565b7f65d7a28e3265b37a6474929f336521b332c1681b933f6cb9f3376673440d862a81565b610e93611099565b6001600160a01b0316610ea4610c9a565b6001600160a01b031614610eca5760405162461bcd60e51b815260040161070090612b0b565b6001600160a01b038116610ef05760405162461bcd60e51b81526004016107009061286f565b6101c3546040516001600160a01b038084169216907f8be0079c531659141344cd1fd0a4f28419497f9722a3daafe3b4186f6b6457e090600090a36101c3805473ffffffffffffffffffffffffffffffffffffffff19166001600160a01b0392909216919091179055565b600054610100900460ff1680610f74575060005460ff16155b610f905760405162461bcd60e51b8152600401610700906129f4565b600054610100900460ff16158015610fbb576000805460ff1961ff0019909116610100171660011790555b61102f6040518060400160405280601081526020017f4e6f76656d20476f6c6420546f6b656e000000000000000000000000000000008152506040518060400160405280600381526020017f4e4e4e00000000000000000000000000000000000000000000000000000000008152506115d8565b80156109a7576000805461ff001916905550565b60007fffffffff0000000000000000000000000000000000000000000000000000000082167f7965db0b0000000000000000000000000000000000000000000000000000000014806105c457506105c48261165c565b3390565b6001600160a01b0383166110c35760405162461bcd60e51b815260040161070090612cb4565b6001600160a01b0382166110e95760405162461bcd60e51b8152600401610700906128cc565b6001600160a01b03808416600081815260ca602090815260408083209487168084529490915290819020849055517f8c5be1e5ebec7d5bd14f71427d1e84f3dd0314c0f7b2291e5b200ac8c7c3b925906111449085906125f6565b60405180910390a3505050565b61117d7fbcaa5c4620c62b2fedc77ef4fe401724814aeef811d907416a737179a85b1ab26104bc611099565b1561118d57610dc88383836116a6565b6111a0838361119b84611531565b6116a6565b6101f55461078a90849064010000000090046001600160a01b031661119b84611515565b6111cd8261072f565b6111de816111d9611099565b6117ce565b61078a8383611832565b6000610cc2836001600160a01b0384166118b9565b611205611099565b6001600160a01b0316816001600160a01b0316146112355760405162461bcd60e51b815260040161070090612e85565b61097a8282611903565b6000610cc2836001600160a01b038416611988565b61125c610ae0565b6112785760405162461bcd60e51b815260040161070090612721565b61012d805460ff191690557f5db9ee0a495bf2e6ff9c91a7834c1ba4fdd244a5e8aa4e537bd38aeae4b073aa6112ac611099565b6040516112b991906125d7565b60405180910390a1565b6001600160a01b0382166112e95760405162461bcd60e51b815260040161070090612ee2565b6112f560008383611a9f565b8060cb60008282546113079190612f95565b90915550506001600160a01b038216600090815260c9602052604081208054839290611334908490612f95565b90915550506040516001600160a01b038316906000907fddf252ad1be2c89b69c2b068fc378daa952ba7f163c4a11628f55a4df523b3ef906113779085906125f6565b60405180910390a35050565b6001600160a01b0382166113a95760405162461bcd60e51b815260040161070090612bfa565b6113b582600083611a9f565b6001600160a01b038216600090815260c96020526040902054818110156113ee5760405162461bcd60e51b8152600401610700906127b5565b6113f88282612fec565b6001600160a01b038416600090815260c9602052604081209190915560cb8054849290611426908490612fec565b90915550506040516000906001600160a01b038516907fddf252ad1be2c89b69c2b068fc378daa952ba7f163c4a11628f55a4df523b3ef906111449086906125f6565b600054610100900460ff1680611482575060005460ff16155b61149e5760405162461bcd60e51b8152600401610700906129f4565b600054610100900460ff161580156114c9576000805460ff1961ff0019909116610100171660011790555b6114d1611aaa565b6114d9611aaa565b6114e1611aaa565b6114e9611aaa565b6114f38383611b1d565b6114fb611aaa565b611503611bbb565b61150b611aaa565b610aca8383611c3a565b6101f5546000906105c490839063ffffffff90811690611d0416565b60006105c461153f83611515565b8390611d10565b61154e610ae0565b1561156b5760405162461bcd60e51b815260040161070090612986565b61012d805460ff191660011790557f62e78cea01bee320cd4e420270b5ea74000d11b0c9f74754ebdbfc544b05a2586112ac611099565b6000610cc28383611d1c565b60006105c482611d75565b6115c28261072f565b6115ce816111d9611099565b61078a8383611903565b600054610100900460ff16806115f1575060005460ff16155b61160d5760405162461bcd60e51b8152600401610700906129f4565b600054610100900460ff16158015611638576000805460ff1961ff0019909116610100171660011790555b6116428383611b1d565b61164c8383611c3a565b611654611d79565b610aca611e2d565b7fffffffff0000000000000000000000000000000000000000000000000000000081167f01ffc9a70000000000000000000000000000000000000000000000000000000014919050565b6001600160a01b0383166116cc5760405162461bcd60e51b815260040161070090612c57565b6001600160a01b0382166116f25760405162461bcd60e51b8152600401610700906126c4565b6116fd838383611a9f565b6001600160a01b038316600090815260c96020526040902054818110156117365760405162461bcd60e51b815260040161070090612929565b6117408282612fec565b6001600160a01b03808616600090815260c960205260408082209390935590851681529081208054849290611776908490612f95565b92505081905550826001600160a01b0316846001600160a01b03167fddf252ad1be2c89b69c2b068fc378daa952ba7f163c4a11628f55a4df523b3ef846040516117c091906125f6565b60405180910390a350505050565b6117d88282610cc9565b61097a576117f0816001600160a01b03166014611e9d565b6117fb836020611e9d565b60405160200161180c929190612556565b60408051601f198184030181529082905262461bcd60e51b8252610700916004016125ff565b61183c8282610cc9565b61097a5760008281526065602090815260408083206001600160a01b03851684529091529020805460ff19166001179055611875611099565b6001600160a01b0316816001600160a01b0316837f2f8788117e7eff1d82e926ec794901d17c78024a50270940304540a733656f0d60405160405180910390a45050565b60006118c583836120dc565b6118fb57508154600181810184556000848152602080822090930184905584548482528286019093526040902091909155610676565b506000610676565b61190d8282610cc9565b1561097a5760008281526065602090815260408083206001600160a01b03851684529091529020805460ff19169055611944611099565b6001600160a01b0316816001600160a01b0316837ff6391f5c32d9c69d2a47ea670b442974b53935d1edc7fd64eb21e047a839171b60405160405180910390a45050565b60008181526001830160205260408120548015611a955760006119ac600183612fec565b85549091506000906119c090600190612fec565b905060008660000182815481106119e757634e487b7160e01b600052603260045260246000fd5b9060005260206000200154905080876000018481548110611a1857634e487b7160e01b600052603260045260246000fd5b600091825260208083209091019290925582815260018901909152604090208490558654879080611a5957634e487b7160e01b600052603160045260246000fd5b60019003818190600052602060002001600090559055866001016000878152602001908152602001600020600090556001945050505050610676565b6000915050610676565b61078a8383836120f4565b600054610100900460ff1680611ac3575060005460ff16155b611adf5760405162461bcd60e51b8152600401610700906129f4565b600054610100900460ff1615801561102f576000805460ff1961ff00199091166101001716600117905580156109a7576000805461ff001916905550565b600054610100900460ff1680611b36575060005460ff16155b611b525760405162461bcd60e51b8152600401610700906129f4565b600054610100900460ff16158015611b7d576000805460ff1961ff0019909116610100171660011790555b8251611b909060cc906020860190612212565b508151611ba49060cd906020850190612212565b50801561078a576000805461ff0019169055505050565b600054610100900460ff1680611bd4575060005460ff16155b611bf05760405162461bcd60e51b8152600401610700906129f4565b600054610100900460ff16158015611c1b576000805460ff1961ff0019909116610100171660011790555b61012d805460ff1916905580156109a7576000805461ff001916905550565b600054610100900460ff1680611c53575060005460ff16155b611c6f5760405162461bcd60e51b8152600401610700906129f4565b600054610100900460ff16158015611c9a576000805460ff1961ff0019909116610100171660011790555b611cac6000611ca7611099565b612124565b611cd87f9f2df0fed2c77648de5860a4cc508cd0818c85b8b8a1ab4ceeef8d981c8956a6611ca7611099565b610aca7f65d7a28e3265b37a6474929f336521b332c1681b933f6cb9f3376673440d862a611ca7611099565b6000610cc28284612fad565b6000610cc28284612fec565b81546000908210611d3f5760405162461bcd60e51b815260040161070090612632565b826000018281548110611d6257634e487b7160e01b600052603260045260246000fd5b9060005260206000200154905092915050565b5490565b600054610100900460ff1680611d92575060005460ff16155b611dae5760405162461bcd60e51b8152600401610700906129f4565b600054610100900460ff16158015611dd9576000805460ff1961ff0019909116610100171660011790555b611e057fbcaa5c4620c62b2fedc77ef4fe401724814aeef811d907416a737179a85b1ab2611ca7611099565b611e22739d1cb8509a7b60421ab28492ce05e06f52ddf727610794565b61102f6101906109aa565b600054610100900460ff1680611e46575060005460ff16155b611e625760405162461bcd60e51b8152600401610700906129f4565b600054610100900460ff16158015611e8d576000805460ff1961ff0019909116610100171660011790555b611e95611aaa565b61102f61212e565b60606000611eac836002612fcd565b611eb7906002612f95565b67ffffffffffffffff811115611edd57634e487b7160e01b600052604160045260246000fd5b6040519080825280601f01601f191660200182016040528015611f07576020820181803683370190505b5090507f300000000000000000000000000000000000000000000000000000000000000081600081518110611f4c57634e487b7160e01b600052603260045260246000fd5b60200101907effffffffffffffffffffffffffffffffffffffffffffffffffffffffffffff1916908160001a9053507f780000000000000000000000000000000000000000000000000000000000000081600181518110611fbd57634e487b7160e01b600052603260045260246000fd5b60200101907effffffffffffffffffffffffffffffffffffffffffffffffffffffffffffff1916908160001a9053506000611ff9846002612fcd565b612004906001612f95565b90505b60018111156120bd577f303132333435363738396162636465660000000000000000000000000000000085600f166010811061205357634e487b7160e01b600052603260045260246000fd5b1a60f81b82828151811061207757634e487b7160e01b600052603260045260246000fd5b60200101907effffffffffffffffffffffffffffffffffffffffffffffffffffffffffffff1916908160001a90535060049490941c936120b681613033565b9050612007565b508315610cc25760405162461bcd60e51b81526004016107009061268f565b60009081526001919091016020526040902054151590565b6120ff83838361078a565b612107610ae0565b1561078a5760405162461bcd60e51b815260040161070090612f19565b6107728282612208565b600054610100900460ff1680612147575060005460ff16155b6121635760405162461bcd60e51b8152600401610700906129f4565b600054610100900460ff1615801561218e576000805460ff1961ff0019909116610100171660011790555b6000612198611099565b6101c3805473ffffffffffffffffffffffffffffffffffffffff19166001600160a01b038316908117909155604051919250906000907f8be0079c531659141344cd1fd0a4f28419497f9722a3daafe3b4186f6b6457e0908290a35080156109a7576000805461ff001916905550565b61097a8282611832565b82805461221e9061304a565b90600052602060002090601f0160209004810192826122405760008555612286565b82601f1061225957805160ff1916838001178555612286565b82800160010185558215612286579182015b8281111561228657825182559160200191906001019061226b565b50612292929150612296565b5090565b5b808211156122925760008155600101612297565b80356001600160a01b03811681146105c757600080fd5b600082601f8301126122d2578081fd5b813567ffffffffffffffff808211156122ed576122ed61309b565b6040516020601f19601f85011682010181811083821117156123115761231161309b565b604052828152848301602001861015612328578384fd5b82602086016020830137918201602001929092529392505050565b600060208284031215612354578081fd5b610cc2826122ab565b6000806040838503121561236f578081fd5b612378836122ab565b9150612386602084016122ab565b90509250929050565b6000806000606084860312156123a3578081fd5b6123ac846122ab565b92506123ba602085016122ab565b9150604084013590509250925092565b600080604083850312156123dc578182fd5b6123e5836122ab565b946020939093013593505050565b600080600060608486031215612407578283fd5b612410846122ab565b9250602084013591506040840135801515811461242b578182fd5b809150509250925092565b600060208284031215612447578081fd5b5035919050565b60008060408385031215612460578182fd5b82359150612386602084016122ab565b60008060408385031215612482578182fd5b50508035926020909101359150565b6000602082840312156124a2578081fd5b81357fffffffff0000000000000000000000000000000000000000000000000000000081168114610cc2578182fd5b600080604083850312156124e3578182fd5b823567ffffffffffffffff808211156124fa578384fd5b612506868387016122c2565b9350602085013591508082111561251b578283fd5b50612528858286016122c2565b9150509250929050565b600060208284031215612543578081fd5b813563ffffffff81168114610cc2578182fd5b60007f416363657373436f6e74726f6c3a206163636f756e74200000000000000000008252835161258e816017850160208801613003565b7f206973206d697373696e6720726f6c652000000000000000000000000000000060179184019182015283516125cb816028840160208801613003565b01602801949350505050565b6001600160a01b0391909116815260200190565b901515815260200190565b90815260200190565b600060208252825180602084015261261e816040850160208701613003565b601f01601f19169190910160400192915050565b60208082526022908201527f456e756d657261626c655365743a20696e646578206f7574206f6620626f756e60408201527f6473000000000000000000000000000000000000000000000000000000000000606082015260800190565b6020808252818101527f537472696e67733a20686578206c656e67746820696e73756666696369656e74604082015260600190565b60208082526023908201527f45524332303a207472616e7366657220746f20746865207a65726f206164647260408201527f6573730000000000000000000000000000000000000000000000000000000000606082015260800190565b60208082526014908201527f5061757361626c653a206e6f7420706175736564000000000000000000000000604082015260600190565b60208082526031908201527f546f6b656e207472616e73666572206665652064697669736f72206d7573742060408201527f62652067726561746572207468616e2030000000000000000000000000000000606082015260800190565b60208082526022908201527f45524332303a206275726e20616d6f756e7420657863656564732062616c616e60408201527f6365000000000000000000000000000000000000000000000000000000000000606082015260800190565b60208082526039908201527f45524332305072657365744d696e7465725061757365723a206d75737420686160408201527f76652070617573657220726f6c6520746f20756e706175736500000000000000606082015260800190565b60208082526026908201527f4f776e61626c653a206e6577206f776e657220697320746865207a65726f206160408201527f6464726573730000000000000000000000000000000000000000000000000000606082015260800190565b60208082526022908201527f45524332303a20617070726f766520746f20746865207a65726f20616464726560408201527f7373000000000000000000000000000000000000000000000000000000000000606082015260800190565b60208082526026908201527f45524332303a207472616e7366657220616d6f756e742065786365656473206260408201527f616c616e63650000000000000000000000000000000000000000000000000000606082015260800190565b60208082526010908201527f5061757361626c653a2070617573656400000000000000000000000000000000604082015260600190565b6020808252601b908201527f7a65726f2061646472657373206973206e6f7420616c6c6f7765640000000000604082015260600190565b6020808252602e908201527f496e697469616c697a61626c653a20636f6e747261637420697320616c72656160408201527f647920696e697469616c697a6564000000000000000000000000000000000000606082015260800190565b60208082526023908201527f43616c6c6572206d75737420686176652061646d696e20726f6c6520746f206d60408201527f696e740000000000000000000000000000000000000000000000000000000000606082015260800190565b60208082526028908201527f45524332303a207472616e7366657220616d6f756e742065786365656473206160408201527f6c6c6f77616e6365000000000000000000000000000000000000000000000000606082015260800190565b6020808252818101527f4f776e61626c653a2063616c6c6572206973206e6f7420746865206f776e6572604082015260600190565b60208082526036908201527f45524332305072657365744d696e7465725061757365723a206d75737420686160408201527f7665206d696e74657220726f6c6520746f206d696e7400000000000000000000606082015260800190565b60208082526024908201527f45524332303a206275726e20616d6f756e74206578636565647320616c6c6f7760408201527f616e636500000000000000000000000000000000000000000000000000000000606082015260800190565b60208082526021908201527f45524332303a206275726e2066726f6d20746865207a65726f2061646472657360408201527f7300000000000000000000000000000000000000000000000000000000000000606082015260800190565b60208082526025908201527f45524332303a207472616e736665722066726f6d20746865207a65726f20616460408201527f6472657373000000000000000000000000000000000000000000000000000000606082015260800190565b60208082526024908201527f45524332303a20617070726f76652066726f6d20746865207a65726f2061646460408201527f7265737300000000000000000000000000000000000000000000000000000000606082015260800190565b60208082526036908201527f43616c6c6572206d75737420686176652061646d696e20726f6c6520746f207360408201527f6574206d696e74696e6720666565206164647265737300000000000000000000606082015260800190565b60208082526037908201527f45524332305072657365744d696e7465725061757365723a206d75737420686160408201527f76652070617573657220726f6c6520746f207061757365000000000000000000606082015260800190565b60208082526036908201527f43616c6c6572206d75737420686176652061646d696e20726f6c6520746f207360408201527f6574206d696e74696e67206665652070657263656e7400000000000000000000606082015260800190565b60208082526025908201527f45524332303a2064656372656173656420616c6c6f77616e63652062656c6f7760408201527f207a65726f000000000000000000000000000000000000000000000000000000606082015260800190565b6020808252602f908201527f416363657373436f6e74726f6c3a2063616e206f6e6c792072656e6f756e636560408201527f20726f6c657320666f722073656c660000000000000000000000000000000000606082015260800190565b6020808252601f908201527f45524332303a206d696e7420746f20746865207a65726f206164647265737300604082015260600190565b6020808252602a908201527f45524332305061757361626c653a20746f6b656e207472616e7366657220776860408201527f696c652070617573656400000000000000000000000000000000000000000000606082015260800190565b63ffffffff91909116815260200190565b60ff91909116815260200190565b60008219821115612fa857612fa8613085565b500190565b600082612fc857634e487b7160e01b81526012600452602481fd5b500490565b6000816000190483118215151615612fe757612fe7613085565b500290565b600082821015612ffe57612ffe613085565b500390565b60005b8381101561301e578181015183820152602001613006565b8381111561302d576000848401525b50505050565b60008161304257613042613085565b506000190190565b60028104600182168061305e57607f821691505b6020821081141561307f57634e487b7160e01b600052602260045260246000fd5b50919050565b634e487b7160e01b600052601160045260246000fd5b634e487b7160e01b600052604160045260246000fdfea264697066735822122043ccdcfe6a1521363cd2c779ee672bae7db52e2854bea4283178119555dae0b664736f6c63430008000033",
  "devdoc": {
    "details": "this contract is a Pausable ERC20 token with Burn and Mint functions. By implementing EnhancedMinterPauser this contract also includes external methods for setting a new implementation contract for the Proxy. NOTE: All calls to this contract should be made through the proxy, including admin actions. Any call to transfer against this contract should fail.",
    "kind": "dev",
    "methods": {
      "allowance(address,address)": {
        "details": "See {IERC20-allowance}."
      },
      "approve(address,uint256)": {
        "details": "See {IERC20-approve}. Requirements: - `spender` cannot be the zero address."
      },
      "balanceOf(address)": {
        "details": "See {IERC20-balanceOf}."
      },
      "burn(uint256)": {
        "details": "Destroys `amount` tokens from the caller. See {ERC20-_burn}."
      },
      "burnFrom(address,uint256)": {
        "details": "Destroys `amount` tokens from `account`, deducting from the caller's allowance. See {ERC20-_burn} and {ERC20-allowance}. Requirements: - the caller must have allowance for ``accounts``'s tokens of at least `amount`."
      },
      "decimals()": {
        "details": "Returns the number of decimals used to get its user representation. For example, if `decimals` equals `2`, a balance of `505` tokens should be displayed to a user as `5,05` (`505 / 10 ** 2`). Tokens usually opt for a value of 18, imitating the relationship between Ether and Wei. This is the value {ERC20} uses, unless this function is overridden; NOTE: This information is only used for _display_ purposes: it in no way affects any of the arithmetic of the contract, including {IERC20-balanceOf} and {IERC20-transfer}."
      },
      "decreaseAllowance(address,uint256)": {
        "details": "Atomically decreases the allowance granted to `spender` by the caller. This is an alternative to {approve} that can be used as a mitigation for problems described in {IERC20-approve}. Emits an {Approval} event indicating the updated allowance. Requirements: - `spender` cannot be the zero address. - `spender` must have allowance for the caller of at least `subtractedValue`."
      },
      "getRoleAdmin(bytes32)": {
        "details": "Returns the admin role that controls `role`. See {grantRole} and {revokeRole}. To change a role's admin, use {_setRoleAdmin}."
      },
      "getRoleMember(bytes32,uint256)": {
        "details": "Returns one of the accounts that have `role`. `index` must be a value between 0 and {getRoleMemberCount}, non-inclusive. Role bearers are not sorted in any particular way, and their ordering may change at any point. WARNING: When using {getRoleMember} and {getRoleMemberCount}, make sure you perform all queries on the same block. See the following https://forum.openzeppelin.com/t/iterating-over-elements-on-enumerableset-in-openzeppelin-contracts/2296[forum post] for more information."
      },
      "getRoleMemberCount(bytes32)": {
        "details": "Returns the number of accounts that have `role`. Can be used together with {getRoleMember} to enumerate all bearers of a role."
      },
      "grantRole(bytes32,address)": {
        "details": "Overload {grantRole} to track enumerable memberships"
      },
      "hasRole(bytes32,address)": {
        "details": "Returns `true` if `account` has been granted `role`."
      },
      "increaseAllowance(address,uint256)": {
        "details": "Atomically increases the allowance granted to `spender` by the caller. This is an alternative to {approve} that can be used as a mitigation for problems described in {IERC20-approve}. Emits an {Approval} event indicating the updated allowance. Requirements: - `spender` cannot be the zero address."
      },
      "mint(address,uint256)": {
        "details": "Creates `amount` new tokens for `to`. See {ERC20-_mint}. Requirements: - the caller must have the `MINTER_ROLE`."
      },
      "mintWithFee(address,uint256)": {
        "details": "mint tokens substract the fee, send the fee to the fee wallet and send the final amount to the given address"
      },
      "mintWithoutDecimals(address,uint256,bool)": {
        "details": "minting without 18 decimal places for convenience if withFee = true calls the mintWithFee function else sends the minted tokens without substracting a fee"
      },
      "name()": {
        "details": "Returns the name of the token."
      },
      "owner()": {
        "details": "Returns the address of the current owner."
      },
      "pause()": {
        "details": "Pauses all token transfers. See {ERC20Pausable} and {Pausable-_pause}. Requirements: - the caller must have the `PAUSER_ROLE`."
      },
      "paused()": {
        "details": "Returns true if the contract is paused, and false otherwise."
      },
      "renounceOwnership()": {
        "details": "Leaves the contract without owner. It will not be possible to call `onlyOwner` functions anymore. Can only be called by the current owner. NOTE: Renouncing ownership will leave the contract without an owner, thereby removing any functionality that is only available to the owner."
      },
      "renounceRole(bytes32,address)": {
        "details": "Overload {renounceRole} to track enumerable memberships"
      },
      "revokeRole(bytes32,address)": {
        "details": "Overload {revokeRole} to track enumerable memberships"
      },
      "setFeeWalletAddress(address)": {
        "details": "set the wallet address where fees will be collected"
      },
      "setTransferFeeDivisor(uint32)": {
        "details": "sets the transfer fee example: divisor 400 would equal to 0,05 percent; 1/400 = 0,0025/100"
      },
      "supportsInterface(bytes4)": {
        "details": "See {IERC165-supportsInterface}."
      },
      "symbol()": {
        "details": "Returns the symbol of the token, usually a shorter version of the name."
      },
      "totalSupply()": {
        "details": "See {IERC20-totalSupply}."
      },
      "transfer(address,uint256)": {
        "details": "See {IERC20-transfer}. Requirements: - `recipient` cannot be the zero address. - the caller must have a balance of at least `amount`."
      },
      "transferFrom(address,address,uint256)": {
        "details": "See {IERC20-transferFrom}. Emits an {Approval} event indicating the updated allowance. This is not required by the EIP. See the note at the beginning of {ERC20}. Requirements: - `sender` and `recipient` cannot be the zero address. - `sender` must have a balance of at least `amount`. - the caller must have allowance for ``sender``'s tokens of at least `amount`."
      },
      "transferOwnership(address)": {
        "details": "Transfers ownership of the contract to a new account (`newOwner`). Can only be called by the current owner."
      },
      "unpause()": {
        "details": "Unpauses all token transfers. See {ERC20Pausable} and {Pausable-_unpause}. Requirements: - the caller must have the `PAUSER_ROLE`."
      }
    },
    "title": "NNN Gold Token",
    "version": 1
  },
  "userdoc": {
    "kind": "user",
    "methods": {},
    "version": 1
  },
  "storageLayout": {
    "storage": [
      {
        "astId": 753,
        "contract": "src/NNNToken.sol:NNNToken",
        "label": "_initialized",
        "offset": 0,
        "slot": "0",
        "type": "t_bool"
      },
      {
        "astId": 756,
        "contract": "src/NNNToken.sol:NNNToken",
        "label": "_initializing",
        "offset": 1,
        "slot": "0",
        "type": "t_bool"
      },
      {
        "astId": 1935,
        "contract": "src/NNNToken.sol:NNNToken",
        "label": "__gap",
        "offset": 0,
        "slot": "1",
        "type": "t_array(t_uint256)50_storage"
      },
      {
        "astId": 2184,
        "contract": "src/NNNToken.sol:NNNToken",
        "label": "__gap",
        "offset": 0,
        "slot": "51",
        "type": "t_array(t_uint256)50_storage"
      },
      {
        "astId": 307,
        "contract": "src/NNNToken.sol:NNNToken",
        "label": "_roles",
        "offset": 0,
        "slot": "101",
        "type": "t_mapping(t_bytes32,t_struct(RoleData)302_storage)"
      },
      {
        "astId": 615,
        "contract": "src/NNNToken.sol:NNNToken",
        "label": "__gap",
        "offset": 0,
        "slot": "102",
        "type": "t_array(t_uint256)49_storage"
      },
      {
        "astId": 62,
        "contract": "src/NNNToken.sol:NNNToken",
        "label": "_roleMembers",
        "offset": 0,
        "slot": "151",
        "type": "t_mapping(t_bytes32,t_struct(AddressSet)2795_storage)"
      },
      {
        "astId": 219,
        "contract": "src/NNNToken.sol:NNNToken",
        "label": "__gap",
        "offset": 0,
        "slot": "152",
        "type": "t_array(t_uint256)49_storage"
      },
      {
        "astId": 925,
        "contract": "src/NNNToken.sol:NNNToken",
        "label": "_balances",
        "offset": 0,
        "slot": "201",
        "type": "t_mapping(t_address,t_uint256)"
      },
      {
        "astId": 931,
        "contract": "src/NNNToken.sol:NNNToken",
        "label": "_allowances",
        "offset": 0,
        "slot": "202",
        "type": "t_mapping(t_address,t_mapping(t_address,t_uint256))"
      },
      {
        "astId": 933,
        "contract": "src/NNNToken.sol:NNNToken",
        "label": "_totalSupply",
        "offset": 0,
        "slot": "203",
        "type": "t_uint256"
      },
      {
        "astId": 935,
        "contract": "src/NNNToken.sol:NNNToken",
        "label": "_name",
        "offset": 0,
        "slot": "204",
        "type": "t_string_storage"
      },
      {
        "astId": 937,
        "contract": "src/NNNToken.sol:NNNToken",
        "label": "_symbol",
        "offset": 0,
        "slot": "205",
        "type": "t_string_storage"
      },
      {
        "astId": 1439,
        "contract": "src/NNNToken.sol:NNNToken",
        "label": "__gap",
        "offset": 0,
        "slot": "206",
        "type": "t_array(t_uint256)45_storage"
      },
      {
        "astId": 1603,
        "contract": "src/NNNToken.sol:NNNToken",
        "label": "__gap",
        "offset": 0,
        "slot": "251",
        "type": "t_array(t_uint256)50_storage"
      },
      {
        "astId": 814,
        "contract": "src/NNNToken.sol:NNNToken",
        "label": "_paused",
        "offset": 0,
        "slot": "301",
        "type": "t_bool"
      },
      {
        "astId": 905,
        "contract": "src/NNNToken.sol:NNNToken",
        "label": "__gap",
        "offset": 0,
        "slot": "302",
        "type": "t_array(t_uint256)49_storage"
      },
      {
        "astId": 1668,
        "contract": "src/NNNToken.sol:NNNToken",
        "label": "__gap",
        "offset": 0,
        "slot": "351",
        "type": "t_array(t_uint256)50_storage"
      },
      {
        "astId": 1890,
        "contract": "src/NNNToken.sol:NNNToken",
        "label": "__gap",
        "offset": 0,
        "slot": "401",
        "type": "t_array(t_uint256)50_storage"
      },
      {
        "astId": 627,
        "contract": "src/NNNToken.sol:NNNToken",
        "label": "_owner",
        "offset": 0,
        "slot": "451",
        "type": "t_address"
      },
      {
        "astId": 746,
        "contract": "src/NNNToken.sol:NNNToken",
        "label": "__gap",
        "offset": 0,
        "slot": "452",
        "type": "t_array(t_uint256)49_storage"
      },
      {
        "astId": 3044,
        "contract": "src/NNNToken.sol:NNNToken",
        "label": "tokenTransferFeeDivisor",
        "offset": 0,
        "slot": "501",
        "type": "t_uint32"
      },
      {
        "astId": 3046,
        "contract": "src/NNNToken.sol:NNNToken",
        "label": "feeAddress",
        "offset": 4,
        "slot": "501",
        "type": "t_address"
      },
      {
        "astId": 3325,
        "contract": "src/NNNToken.sol:NNNToken",
        "label": "__gap",
        "offset": 0,
        "slot": "502",
        "type": "t_array(t_uint256)50_storage"
      }
    ],
    "types": {
      "t_address": {
        "encoding": "inplace",
        "label": "address",
        "numberOfBytes": "20"
      },
      "t_array(t_bytes32)dyn_storage": {
        "base": "t_bytes32",
        "encoding": "dynamic_array",
        "label": "bytes32[]",
        "numberOfBytes": "32"
      },
      "t_array(t_uint256)45_storage": {
        "base": "t_uint256",
        "encoding": "inplace",
        "label": "uint256[45]",
        "numberOfBytes": "1440"
      },
      "t_array(t_uint256)49_storage": {
        "base": "t_uint256",
        "encoding": "inplace",
        "label": "uint256[49]",
        "numberOfBytes": "1568"
      },
      "t_array(t_uint256)50_storage": {
        "base": "t_uint256",
        "encoding": "inplace",
        "label": "uint256[50]",
        "numberOfBytes": "1600"
      },
      "t_bool": {
        "encoding": "inplace",
        "label": "bool",
        "numberOfBytes": "1"
      },
      "t_bytes32": {
        "encoding": "inplace",
        "label": "bytes32",
        "numberOfBytes": "32"
      },
      "t_mapping(t_address,t_bool)": {
        "encoding": "mapping",
        "key": "t_address",
        "label": "mapping(address => bool)",
        "numberOfBytes": "32",
        "value": "t_bool"
      },
      "t_mapping(t_address,t_mapping(t_address,t_uint256))": {
        "encoding": "mapping",
        "key": "t_address",
        "label": "mapping(address => mapping(address => uint256))",
        "numberOfBytes": "32",
        "value": "t_mapping(t_address,t_uint256)"
      },
      "t_mapping(t_address,t_uint256)": {
        "encoding": "mapping",
        "key": "t_address",
        "label": "mapping(address => uint256)",
        "numberOfBytes": "32",
        "value": "t_uint256"
      },
      "t_mapping(t_bytes32,t_struct(AddressSet)2795_storage)": {
        "encoding": "mapping",
        "key": "t_bytes32",
        "label": "mapping(bytes32 => struct EnumerableSetUpgradeable.AddressSet)",
        "numberOfBytes": "32",
        "value": "t_struct(AddressSet)2795_storage"
      },
      "t_mapping(t_bytes32,t_struct(RoleData)302_storage)": {
        "encoding": "mapping",
        "key": "t_bytes32",
        "label": "mapping(bytes32 => struct AccessControlUpgradeable.RoleData)",
        "numberOfBytes": "32",
        "value": "t_struct(RoleData)302_storage"
      },
      "t_mapping(t_bytes32,t_uint256)": {
        "encoding": "mapping",
        "key": "t_bytes32",
        "label": "mapping(bytes32 => uint256)",
        "numberOfBytes": "32",
        "value": "t_uint256"
      },
      "t_string_storage": {
        "encoding": "bytes",
        "label": "string",
        "numberOfBytes": "32"
      },
      "t_struct(AddressSet)2795_storage": {
        "encoding": "inplace",
        "label": "struct EnumerableSetUpgradeable.AddressSet",
        "members": [
          {
            "astId": 2794,
            "contract": "src/NNNToken.sol:NNNToken",
            "label": "_inner",
            "offset": 0,
            "slot": "0",
            "type": "t_struct(Set)2520_storage"
          }
        ],
        "numberOfBytes": "64"
      },
      "t_struct(RoleData)302_storage": {
        "encoding": "inplace",
        "label": "struct AccessControlUpgradeable.RoleData",
        "members": [
          {
            "astId": 299,
            "contract": "src/NNNToken.sol:NNNToken",
            "label": "members",
            "offset": 0,
            "slot": "0",
            "type": "t_mapping(t_address,t_bool)"
          },
          {
            "astId": 301,
            "contract": "src/NNNToken.sol:NNNToken",
            "label": "adminRole",
            "offset": 0,
            "slot": "1",
            "type": "t_bytes32"
          }
        ],
        "numberOfBytes": "64"
      },
      "t_struct(Set)2520_storage": {
        "encoding": "inplace",
        "label": "struct EnumerableSetUpgradeable.Set",
        "members": [
          {
            "astId": 2515,
            "contract": "src/NNNToken.sol:NNNToken",
            "label": "_values",
            "offset": 0,
            "slot": "0",
            "type": "t_array(t_bytes32)dyn_storage"
          },
          {
            "astId": 2519,
            "contract": "src/NNNToken.sol:NNNToken",
            "label": "_indexes",
            "offset": 0,
            "slot": "1",
            "type": "t_mapping(t_bytes32,t_uint256)"
          }
        ],
        "numberOfBytes": "64"
      },
      "t_uint256": {
        "encoding": "inplace",
        "label": "uint256",
        "numberOfBytes": "32"
      },
      "t_uint32": {
        "encoding": "inplace",
        "label": "uint32",
        "numberOfBytes": "4"
      }
    }
  }
}