{
  "address": "0x45cF0F290FF947a732a690E70f43F3E4196AD28B",
  "abi": [
    {
      "anonymous": false,
      "inputs": [
        {
          "indexed": true,
          "internalType": "address",
          "name": "owner",
          "type": "address"
        },
        {
          "indexed": true,
          "internalType": "address",
          "name": "spender",
          "type": "address"
        },
        {
          "indexed": false,
          "internalType": "uint256",
          "name": "value",
          "type": "uint256"
        }
      ],
      "name": "Approval",
      "type": "event"
    },
    {
      "anonymous": false,
      "inputs": [
        {
          "indexed": false,
          "internalType": "address",
          "name": "account",
          "type": "address"
        }
      ],
      "name": "Paused",
      "type": "event"
    },
    {
      "anonymous": false,
      "inputs": [
        {
          "indexed": true,
          "internalType": "bytes32",
          "name": "role",
          "type": "bytes32"
        },
        {
          "indexed": true,
          "internalType": "bytes32",
          "name": "previousAdminRole",
          "type": "bytes32"
        },
        {
          "indexed": true,
          "internalType": "bytes32",
          "name": "newAdminRole",
          "type": "bytes32"
        }
      ],
      "name": "RoleAdminChanged",
      "type": "event"
    },
    {
      "anonymous": false,
      "inputs": [
        {
          "indexed": true,
          "internalType": "bytes32",
          "name": "role",
          "type": "bytes32"
        },
        {
          "indexed": true,
          "internalType": "address",
          "name": "account",
          "type": "address"
        },
        {
          "indexed": true,
          "internalType": "address",
          "name": "sender",
          "type": "address"
        }
      ],
      "name": "RoleGranted",
      "type": "event"
    },
    {
      "anonymous": false,
      "inputs": [
        {
          "indexed": true,
          "internalType": "bytes32",
          "name": "role",
          "type": "bytes32"
        },
        {
          "indexed": true,
          "internalType": "address",
          "name": "account",
          "type": "address"
        },
        {
          "indexed": true,
          "internalType": "address",
          "name": "sender",
          "type": "address"
        }
      ],
      "name": "RoleRevoked",
      "type": "event"
    },
    {
      "anonymous": false,
      "inputs": [
        {
          "indexed": true,
          "internalType": "address",
          "name": "from",
          "type": "address"
        },
        {
          "indexed": true,
          "internalType": "address",
          "name": "to",
          "type": "address"
        },
        {
          "indexed": false,
          "internalType": "uint256",
          "name": "value",
          "type": "uint256"
        }
      ],
      "name": "Transfer",
      "type": "event"
    },
    {
      "anonymous": false,
      "inputs": [
        {
          "indexed": false,
          "internalType": "address",
          "name": "account",
          "type": "address"
        }
      ],
      "name": "Unpaused",
      "type": "event"
    },
    {
      "anonymous": false,
      "inputs": [
        {
          "indexed": false,
          "internalType": "address",
          "name": "newValue",
          "type": "address"
        }
      ],
      "name": "feeWalletAddressChanged",
      "type": "event"
    },
    {
      "anonymous": false,
      "inputs": [
        {
          "indexed": false,
          "internalType": "uint32",
          "name": "newValue",
          "type": "uint32"
        }
      ],
      "name": "mintingFeePercentChanged",
      "type": "event"
    },
    {
      "inputs": [],
      "name": "DEFAULT_ADMIN_ROLE",
      "outputs": [
        {
          "internalType": "bytes32",
          "name": "",
          "type": "bytes32"
        }
      ],
      "stateMutability": "view",
      "type": "function"
    },
    {
      "inputs": [],
      "name": "FEE_EXCLUDED_ROLE",
      "outputs": [
        {
          "internalType": "bytes32",
          "name": "",
          "type": "bytes32"
        }
      ],
      "stateMutability": "view",
      "type": "function"
    },
    {
      "inputs": [],
      "name": "MINTER_ROLE",
      "outputs": [
        {
          "internalType": "bytes32",
          "name": "",
          "type": "bytes32"
        }
      ],
      "stateMutability": "view",
      "type": "function"
    },
    {
      "inputs": [],
      "name": "PAUSER_ROLE",
      "outputs": [
        {
          "internalType": "bytes32",
          "name": "",
          "type": "bytes32"
        }
      ],
      "stateMutability": "view",
      "type": "function"
    },
    {
      "inputs": [],
      "name": "__initialize",
      "outputs": [],
      "stateMutability": "nonpayable",
      "type": "function"
    },
    {
      "inputs": [
        {
          "internalType": "address",
          "name": "owner",
          "type": "address"
        },
        {
          "internalType": "address",
          "name": "spender",
          "type": "address"
        }
      ],
      "name": "allowance",
      "outputs": [
        {
          "internalType": "uint256",
          "name": "",
          "type": "uint256"
        }
      ],
      "stateMutability": "view",
      "type": "function"
    },
    {
      "inputs": [
        {
          "internalType": "address",
          "name": "spender",
          "type": "address"
        },
        {
          "internalType": "uint256",
          "name": "amount",
          "type": "uint256"
        }
      ],
      "name": "approve",
      "outputs": [
        {
          "internalType": "bool",
          "name": "",
          "type": "bool"
        }
      ],
      "stateMutability": "nonpayable",
      "type": "function"
    },
    {
      "inputs": [
        {
          "internalType": "address",
          "name": "account",
          "type": "address"
        }
      ],
      "name": "balanceOf",
      "outputs": [
        {
          "internalType": "uint256",
          "name": "",
          "type": "uint256"
        }
      ],
      "stateMutability": "view",
      "type": "function"
    },
    {
      "inputs": [
        {
          "internalType": "uint256",
          "name": "amount",
          "type": "uint256"
        }
      ],
      "name": "burn",
      "outputs": [],
      "stateMutability": "nonpayable",
      "type": "function"
    },
    {
      "inputs": [
        {
          "internalType": "address",
          "name": "account",
          "type": "address"
        },
        {
          "internalType": "uint256",
          "name": "amount",
          "type": "uint256"
        }
      ],
      "name": "burnFrom",
      "outputs": [],
      "stateMutability": "nonpayable",
      "type": "function"
    },
    {
      "inputs": [],
      "name": "decimals",
      "outputs": [
        {
          "internalType": "uint8",
          "name": "",
          "type": "uint8"
        }
      ],
      "stateMutability": "view",
      "type": "function"
    },
    {
      "inputs": [
        {
          "internalType": "address",
          "name": "spender",
          "type": "address"
        },
        {
          "internalType": "uint256",
          "name": "subtractedValue",
          "type": "uint256"
        }
      ],
      "name": "decreaseAllowance",
      "outputs": [
        {
          "internalType": "bool",
          "name": "",
          "type": "bool"
        }
      ],
      "stateMutability": "nonpayable",
      "type": "function"
    },
    {
      "inputs": [],
      "name": "feeAddress",
      "outputs": [
        {
          "internalType": "address",
          "name": "",
          "type": "address"
        }
      ],
      "stateMutability": "view",
      "type": "function"
    },
    {
      "inputs": [
        {
          "internalType": "bytes32",
          "name": "role",
          "type": "bytes32"
        }
      ],
      "name": "getRoleAdmin",
      "outputs": [
        {
          "internalType": "bytes32",
          "name": "",
          "type": "bytes32"
        }
      ],
      "stateMutability": "view",
      "type": "function"
    },
    {
      "inputs": [
        {
          "internalType": "bytes32",
          "name": "role",
          "type": "bytes32"
        },
        {
          "internalType": "uint256",
          "name": "index",
          "type": "uint256"
        }
      ],
      "name": "getRoleMember",
      "outputs": [
        {
          "internalType": "address",
          "name": "",
          "type": "address"
        }
      ],
      "stateMutability": "view",
      "type": "function"
    },
    {
      "inputs": [
        {
          "internalType": "bytes32",
          "name": "role",
          "type": "bytes32"
        }
      ],
      "name": "getRoleMemberCount",
      "outputs": [
        {
          "internalType": "uint256",
          "name": "",
          "type": "uint256"
        }
      ],
      "stateMutability": "view",
      "type": "function"
    },
    {
      "inputs": [
        {
          "internalType": "bytes32",
          "name": "role",
          "type": "bytes32"
        },
        {
          "internalType": "address",
          "name": "account",
          "type": "address"
        }
      ],
      "name": "grantRole",
      "outputs": [],
      "stateMutability": "nonpayable",
      "type": "function"
    },
    {
      "inputs": [
        {
          "internalType": "bytes32",
          "name": "role",
          "type": "bytes32"
        },
        {
          "internalType": "address",
          "name": "account",
          "type": "address"
        }
      ],
      "name": "hasRole",
      "outputs": [
        {
          "internalType": "bool",
          "name": "",
          "type": "bool"
        }
      ],
      "stateMutability": "view",
      "type": "function"
    },
    {
      "inputs": [
        {
          "internalType": "address",
          "name": "spender",
          "type": "address"
        },
        {
          "internalType": "uint256",
          "name": "addedValue",
          "type": "uint256"
        }
      ],
      "name": "increaseAllowance",
      "outputs": [
        {
          "internalType": "bool",
          "name": "",
          "type": "bool"
        }
      ],
      "stateMutability": "nonpayable",
      "type": "function"
    },
    {
      "inputs": [
        {
          "internalType": "string",
          "name": "name",
          "type": "string"
        },
        {
          "internalType": "string",
          "name": "symbol",
          "type": "string"
        }
      ],
      "name": "initialize",
      "outputs": [],
      "stateMutability": "nonpayable",
      "type": "function"
    },
    {
      "inputs": [
        {
          "internalType": "address",
          "name": "to",
          "type": "address"
        },
        {
          "internalType": "uint256",
          "name": "amount",
          "type": "uint256"
        }
      ],
      "name": "mint",
      "outputs": [],
      "stateMutability": "nonpayable",
      "type": "function"
    },
    {
      "inputs": [
        {
          "internalType": "address",
          "name": "recipient",
          "type": "address"
        },
        {
          "internalType": "uint256",
          "name": "amount",
          "type": "uint256"
        }
      ],
      "name": "mintWithFee",
      "outputs": [],
      "stateMutability": "nonpayable",
      "type": "function"
    },
    {
      "inputs": [
        {
          "internalType": "address",
          "name": "recipient",
          "type": "address"
        },
        {
          "internalType": "uint256",
          "name": "amount",
          "type": "uint256"
        },
        {
          "internalType": "bool",
          "name": "withFee",
          "type": "bool"
        }
      ],
      "name": "mintWithoutDecimals",
      "outputs": [],
      "stateMutability": "nonpayable",
      "type": "function"
    },
    {
      "inputs": [],
      "name": "name",
      "outputs": [
        {
          "internalType": "string",
          "name": "",
          "type": "string"
        }
      ],
      "stateMutability": "view",
      "type": "function"
    },
    {
      "inputs": [],
      "name": "pause",
      "outputs": [],
      "stateMutability": "nonpayable",
      "type": "function"
    },
    {
      "inputs": [],
      "name": "paused",
      "outputs": [
        {
          "internalType": "bool",
          "name": "",
          "type": "bool"
        }
      ],
      "stateMutability": "view",
      "type": "function"
    },
    {
      "inputs": [
        {
          "internalType": "bytes32",
          "name": "role",
          "type": "bytes32"
        },
        {
          "internalType": "address",
          "name": "account",
          "type": "address"
        }
      ],
      "name": "renounceRole",
      "outputs": [],
      "stateMutability": "nonpayable",
      "type": "function"
    },
    {
      "inputs": [
        {
          "internalType": "bytes32",
          "name": "role",
          "type": "bytes32"
        },
        {
          "internalType": "address",
          "name": "account",
          "type": "address"
        }
      ],
      "name": "revokeRole",
      "outputs": [],
      "stateMutability": "nonpayable",
      "type": "function"
    },
    {
      "inputs": [
        {
          "internalType": "address",
          "name": "_feeAddress",
          "type": "address"
        }
      ],
      "name": "setFeeWalletAddress",
      "outputs": [],
      "stateMutability": "nonpayable",
      "type": "function"
    },
    {
      "inputs": [
        {
          "internalType": "uint32",
          "name": "_tokenTransferFeeDivisor",
          "type": "uint32"
        }
      ],
      "name": "setTransferFeeDivisor",
      "outputs": [],
      "stateMutability": "nonpayable",
      "type": "function"
    },
    {
      "inputs": [
        {
          "internalType": "bytes4",
          "name": "interfaceId",
          "type": "bytes4"
        }
      ],
      "name": "supportsInterface",
      "outputs": [
        {
          "internalType": "bool",
          "name": "",
          "type": "bool"
        }
      ],
      "stateMutability": "view",
      "type": "function"
    },
    {
      "inputs": [],
      "name": "symbol",
      "outputs": [
        {
          "internalType": "string",
          "name": "",
          "type": "string"
        }
      ],
      "stateMutability": "view",
      "type": "function"
    },
    {
      "inputs": [],
      "name": "tokenTransferFeeDivisor",
      "outputs": [
        {
          "internalType": "uint32",
          "name": "",
          "type": "uint32"
        }
      ],
      "stateMutability": "view",
      "type": "function"
    },
    {
      "inputs": [],
      "name": "totalSupply",
      "outputs": [
        {
          "internalType": "uint256",
          "name": "",
          "type": "uint256"
        }
      ],
      "stateMutability": "view",
      "type": "function"
    },
    {
      "inputs": [
        {
          "internalType": "address",
          "name": "recipient",
          "type": "address"
        },
        {
          "internalType": "uint256",
          "name": "amount",
          "type": "uint256"
        }
      ],
      "name": "transfer",
      "outputs": [
        {
          "internalType": "bool",
          "name": "",
          "type": "bool"
        }
      ],
      "stateMutability": "nonpayable",
      "type": "function"
    },
    {
      "inputs": [
        {
          "internalType": "address",
          "name": "sender",
          "type": "address"
        },
        {
          "internalType": "address",
          "name": "recipient",
          "type": "address"
        },
        {
          "internalType": "uint256",
          "name": "amount",
          "type": "uint256"
        }
      ],
      "name": "transferFrom",
      "outputs": [
        {
          "internalType": "bool",
          "name": "",
          "type": "bool"
        }
      ],
      "stateMutability": "nonpayable",
      "type": "function"
    },
    {
      "inputs": [],
      "name": "unpause",
      "outputs": [],
      "stateMutability": "nonpayable",
      "type": "function"
    }
  ],
  "transactionHash": "0xbc14280f8d10ff6f56eac88257b83d7594756433cd65711aa3d7528f631384c7",
  "args": [],
  "solcInputHash": "9f99ff020b2aeb9a2c33411a41c1c9f5",
  "bytecode": "0x608060405234801561001057600080fd5b50612d12806100206000396000f3fe608060405234801561001057600080fd5b50600436106102775760003560e01c80634cd88b7611610160578063a217fddf116100d8578063d53913931161008c578063dd62ed3e11610071578063dd62ed3e146104d7578063e63ab1e9146104ea578063f80ce32b146104f257610277565b8063d5391393146104bc578063d547741f146104c457610277565b8063a5c273f9116100bd578063a5c273f914610483578063a9059cbb14610496578063ca15c873146104a957610277565b8063a217fddf14610468578063a457c2d71461047057610277565b806379cc67901161012f5780639010d07c116101145780639010d07c1461043a57806391d148541461044d57806395d89b411461046057610277565b806379cc67901461041f5780638456cb591461043257610277565b80634cd88b76146103de5780635c975abb146103f15780635d520e64146103f957806370a082311461040c57610277565b8063313ce567116101f35780633f4ba83a116101c257806341275358116101a757806341275358146103a357806342966c68146103b857806349178ad5146103cb57610277565b80633f4ba83a1461038857806340c10f191461039057610277565b8063313ce5671461033a57806331503ec41461034f57806336568abe14610362578063395093511461037557610277565b806318160ddd1161024a578063248a9ca31161022f578063248a9ca31461030a5780632dd8175a1461031d5780632f2ff15d1461032557610277565b806318160ddd146102e257806323b872dd146102f757610277565b806301ffc9a71461027c57806306fdde03146102a5578063095ea7b3146102ba5780631804cb04146102cd575b600080fd5b61028f61028a36600461214e565b6104fa565b60405161029c91906122a8565b60405180910390f35b6102ad610558565b60405161029c91906122bc565b61028f6102c8366004612087565b6105ea565b6102d5610608565b60405161029c9190612ba1565b6102ea610615565b60405161029c91906122b3565b61028f61030536600461204c565b61061b565b6102ea6103183660046120f3565b6106bb565b6102ea6106d0565b61033861033336600461210b565b6106f4565b005b61034261071b565b60405161029c9190612bb2565b61033861035d366004612000565b610720565b61033861037036600461210b565b6107f1565b61028f610383366004612087565b610813565b610338610862565b61033861039e366004612087565b6108b4565b6103ab61090a565b60405161029c9190612294565b6103386103c63660046120f3565b610922565b6103386103d93660046121ef565b610936565b6103386103ec36600461218e565b6109ec565b61028f610a6c565b610338610407366004612087565b610a76565b6102ea61041a366004612000565b610ad3565b61033861042d366004612087565b610aee565b610338610b3e565b6103ab61044836600461212d565b610b8e565b61028f61045b36600461210b565b610bad565b6102ad610bd8565b6102ea610be7565b61028f61047e366004612087565b610bec565b6103386104913660046120b0565b610c67565b61028f6104a4366004612087565b610cc7565b6102ea6104b73660046120f3565b610cdb565b6102ea610cf2565b6103386104d236600461210b565b610d16565b6102ea6104e536600461201a565b610d20565b6102ea610d4b565b610338610d6f565b60007fffffffff0000000000000000000000000000000000000000000000000000000082167f5a05180f000000000000000000000000000000000000000000000000000000001480610550575061055082610e57565b90505b919050565b606060cc805461056790612c75565b80601f016020809104026020016040519081016040528092919081815260200182805461059390612c75565b80156105e05780601f106105b5576101008083540402835291602001916105e0565b820191906000526020600020905b8154815290600101906020018083116105c357829003601f168201915b5050505050905090565b60006105fe6105f7610ead565b8484610eb1565b5060015b92915050565b6101c35463ffffffff1681565b60cb5490565b6000610628848484610f65565b6001600160a01b038416600090815260ca6020526040812081610649610ead565b6001600160a01b03166001600160a01b03168152602001908152602001600020549050828110156106955760405162461bcd60e51b815260040161068c9061270e565b60405180910390fd5b6106b0856106a1610ead565b6106ab8685612c17565b610eb1565b506001949350505050565b60009081526065602052604090206001015490565b7fbcaa5c4620c62b2fedc77ef4fe401724814aeef811d907416a737179a85b1ab281565b6106fe8282610fd8565b60008281526097602052604090206107169082610ffc565b505050565b601290565b61072d600061045b610ead565b6107495760405162461bcd60e51b815260040161068c9061293c565b6001600160a01b03811661076f5760405162461bcd60e51b815260040161068c9061261d565b6101c380547fffffffffffffffff0000000000000000000000000000000000000000ffffffff166401000000006001600160a01b03848116820292909217928390556040517f6f5114b3e5960d863abb3c1a60db83d21c561b7818cdf638383e9b9ea40238f9936107e69392900490911690612294565b60405180910390a150565b6107fb8282611011565b60008281526097602052604090206107169082611053565b60006105fe610820610ead565b848460ca600061082e610ead565b6001600160a01b03908116825260208083019390935260409182016000908120918b16815292529020546106ab9190612bc0565b61088e7f65d7a28e3265b37a6474929f336521b332c1681b933f6cb9f3376673440d862a61045b610ead565b6108aa5760405162461bcd60e51b815260040161068c906124cf565b6108b2611068565b565b6108e07f9f2df0fed2c77648de5860a4cc508cd0818c85b8b8a1ab4ceeef8d981c8956a661045b610ead565b6108fc5760405162461bcd60e51b815260040161068c9061276b565b61090682826110d7565b5050565b6101c35464010000000090046001600160a01b031681565b61093361092d610ead565b82611197565b50565b610943600061045b610ead565b61095f5760405162461bcd60e51b815260040161068c906129f6565b60028163ffffffff16116109855760405162461bcd60e51b815260040161068c90612415565b6101c380547fffffffffffffffffffffffffffffffffffffffffffffffffffffffff000000001663ffffffff83811691909117918290556040517fb4fb343f6573d5bcc1c7ab700665911f5ed2699ecfc6a7d1b1af8405409b22ec926107e6921690612ba1565b600054610100900460ff1680610a05575060005460ff16155b610a215760405162461bcd60e51b815260040161068c90612654565b600054610100900460ff16158015610a4c576000805460ff1961ff0019909116610100171660011790555b610a56838361127d565b8015610716576000805461ff0019169055505050565b61012d5460ff1690565b610a83600061045b610ead565b610a9f5760405162461bcd60e51b815260040161068c906126b1565b6101c354610ac69064010000000090046001600160a01b0316610ac183611329565b6110d7565b61090682610ac183611345565b6001600160a01b0316600090815260c9602052604090205490565b6000610afc836104e5610ead565b905081811015610b1e5760405162461bcd60e51b815260040161068c906127c8565b610b3483610b2a610ead565b6106ab8585612c17565b6107168383611197565b610b6a7f65d7a28e3265b37a6474929f336521b332c1681b933f6cb9f3376673440d862a61045b610ead565b610b865760405162461bcd60e51b815260040161068c90612999565b6108b261135a565b6000828152609760205260408120610ba690836113b6565b9392505050565b60009182526065602090815260408084206001600160a01b0393909316845291905290205460ff1690565b606060cd805461056790612c75565b600081565b60008060ca6000610bfb610ead565b6001600160a01b0390811682526020808301939093526040918201600090812091881681529252902054905082811015610c475760405162461bcd60e51b815260040161068c90612a53565b610c5d610c52610ead565b856106ab8685612c17565b5060019392505050565b610c74600061045b610ead565b610c905760405162461bcd60e51b815260040161068c906126b1565b8015610cb157610cac8361040784670de0b6b3a7640000612bf8565b610716565b61071683610ac184670de0b6b3a7640000612bf8565b60006105fe610cd4610ead565b8484610f65565b6000818152609760205260408120610550906113c2565b7f9f2df0fed2c77648de5860a4cc508cd0818c85b8b8a1ab4ceeef8d981c8956a681565b6107fb82826113cd565b6001600160a01b03918216600090815260ca6020908152604080832093909416825291909152205490565b7f65d7a28e3265b37a6474929f336521b332c1681b933f6cb9f3376673440d862a81565b600054610100900460ff1680610d88575060005460ff16155b610da45760405162461bcd60e51b815260040161068c90612654565b600054610100900460ff16158015610dcf576000805460ff1961ff0019909116610100171660011790555b610e436040518060400160405280601081526020017f4e6f76656d20476f6c6420546f6b656e000000000000000000000000000000008152506040518060400160405280600381526020017f4e4e4e00000000000000000000000000000000000000000000000000000000008152506113ec565b8015610933576000805461ff001916905550565b60007fffffffff0000000000000000000000000000000000000000000000000000000082167f7965db0b000000000000000000000000000000000000000000000000000000001480610550575061055082611468565b3390565b6001600160a01b038316610ed75760405162461bcd60e51b815260040161068c906128df565b6001600160a01b038216610efd5760405162461bcd60e51b815260040161068c9061252c565b6001600160a01b03808416600081815260ca602090815260408083209487168084529490915290819020849055517f8c5be1e5ebec7d5bd14f71427d1e84f3dd0314c0f7b2291e5b200ac8c7c3b92590610f589085906122b3565b60405180910390a3505050565b610f917fbcaa5c4620c62b2fedc77ef4fe401724814aeef811d907416a737179a85b1ab261045b610ead565b15610fa157610cac8383836114b2565b610fb48383610faf84611345565b6114b2565b6101c35461071690849064010000000090046001600160a01b0316610faf84611329565b610fe1826106bb565b610ff281610fed610ead565b6115da565b610716838361163e565b6000610ba6836001600160a01b0384166116c5565b611019610ead565b6001600160a01b0316816001600160a01b0316146110495760405162461bcd60e51b815260040161068c90612ab0565b610906828261170f565b6000610ba6836001600160a01b038416611794565b611070610a6c565b61108c5760405162461bcd60e51b815260040161068c906123de565b61012d805460ff191690557f5db9ee0a495bf2e6ff9c91a7834c1ba4fdd244a5e8aa4e537bd38aeae4b073aa6110c0610ead565b6040516110cd9190612294565b60405180910390a1565b6001600160a01b0382166110fd5760405162461bcd60e51b815260040161068c90612b0d565b611109600083836118ab565b8060cb600082825461111b9190612bc0565b90915550506001600160a01b038216600090815260c9602052604081208054839290611148908490612bc0565b90915550506040516001600160a01b038316906000907fddf252ad1be2c89b69c2b068fc378daa952ba7f163c4a11628f55a4df523b3ef9061118b9085906122b3565b60405180910390a35050565b6001600160a01b0382166111bd5760405162461bcd60e51b815260040161068c90612825565b6111c9826000836118ab565b6001600160a01b038216600090815260c96020526040902054818110156112025760405162461bcd60e51b815260040161068c90612472565b61120c8282612c17565b6001600160a01b038416600090815260c9602052604081209190915560cb805484929061123a908490612c17565b90915550506040516000906001600160a01b038516907fddf252ad1be2c89b69c2b068fc378daa952ba7f163c4a11628f55a4df523b3ef90610f589086906122b3565b600054610100900460ff1680611296575060005460ff16155b6112b25760405162461bcd60e51b815260040161068c90612654565b600054610100900460ff161580156112dd576000805460ff1961ff0019909116610100171660011790555b6112e56118b6565b6112ed6118b6565b6112f56118b6565b6112fd6118b6565b6113078383611929565b61130f6118b6565b6113176119c7565b61131f6118b6565b610a568383611a46565b6101c35460009061055090839063ffffffff90811690611b1016565b600061055061135383611329565b8390611b1c565b611362610a6c565b1561137f5760405162461bcd60e51b815260040161068c906125e6565b61012d805460ff191660011790557f62e78cea01bee320cd4e420270b5ea74000d11b0c9f74754ebdbfc544b05a2586110c0610ead565b6000610ba68383611b28565b600061055082611b81565b6113d6826106bb565b6113e281610fed610ead565b610716838361170f565b600054610100900460ff1680611405575060005460ff16155b6114215760405162461bcd60e51b815260040161068c90612654565b600054610100900460ff1615801561144c576000805460ff1961ff0019909116610100171660011790555b6114568383611929565b6114608383611a46565b610a56611b85565b7fffffffff0000000000000000000000000000000000000000000000000000000081167f01ffc9a70000000000000000000000000000000000000000000000000000000014919050565b6001600160a01b0383166114d85760405162461bcd60e51b815260040161068c90612882565b6001600160a01b0382166114fe5760405162461bcd60e51b815260040161068c90612381565b6115098383836118ab565b6001600160a01b038316600090815260c96020526040902054818110156115425760405162461bcd60e51b815260040161068c90612589565b61154c8282612c17565b6001600160a01b03808616600090815260c960205260408082209390935590851681529081208054849290611582908490612bc0565b92505081905550826001600160a01b0316846001600160a01b03167fddf252ad1be2c89b69c2b068fc378daa952ba7f163c4a11628f55a4df523b3ef846040516115cc91906122b3565b60405180910390a350505050565b6115e48282610bad565b610906576115fc816001600160a01b03166014611c39565b611607836020611c39565b604051602001611618929190612213565b60408051601f198184030181529082905262461bcd60e51b825261068c916004016122bc565b6116488282610bad565b6109065760008281526065602090815260408083206001600160a01b03851684529091529020805460ff19166001179055611681610ead565b6001600160a01b0316816001600160a01b0316837f2f8788117e7eff1d82e926ec794901d17c78024a50270940304540a733656f0d60405160405180910390a45050565b60006116d18383611e78565b61170757508154600181810184556000848152602080822090930184905584548482528286019093526040902091909155610602565b506000610602565b6117198282610bad565b156109065760008281526065602090815260408083206001600160a01b03851684529091529020805460ff19169055611750610ead565b6001600160a01b0316816001600160a01b0316837ff6391f5c32d9c69d2a47ea670b442974b53935d1edc7fd64eb21e047a839171b60405160405180910390a45050565b600081815260018301602052604081205480156118a15760006117b8600183612c17565b85549091506000906117cc90600190612c17565b905060008660000182815481106117f357634e487b7160e01b600052603260045260246000fd5b906000526020600020015490508087600001848154811061182457634e487b7160e01b600052603260045260246000fd5b60009182526020808320909101929092558281526001890190915260409020849055865487908061186557634e487b7160e01b600052603160045260246000fd5b60019003818190600052602060002001600090559055866001016000878152602001908152602001600020600090556001945050505050610602565b6000915050610602565b610716838383611e90565b600054610100900460ff16806118cf575060005460ff16155b6118eb5760405162461bcd60e51b815260040161068c90612654565b600054610100900460ff16158015610e43576000805460ff1961ff0019909116610100171660011790558015610933576000805461ff001916905550565b600054610100900460ff1680611942575060005460ff16155b61195e5760405162461bcd60e51b815260040161068c90612654565b600054610100900460ff16158015611989576000805460ff1961ff0019909116610100171660011790555b825161199c9060cc906020860190611ecf565b5081516119b09060cd906020850190611ecf565b508015610716576000805461ff0019169055505050565b600054610100900460ff16806119e0575060005460ff16155b6119fc5760405162461bcd60e51b815260040161068c90612654565b600054610100900460ff16158015611a27576000805460ff1961ff0019909116610100171660011790555b61012d805460ff191690558015610933576000805461ff001916905550565b600054610100900460ff1680611a5f575060005460ff16155b611a7b5760405162461bcd60e51b815260040161068c90612654565b600054610100900460ff16158015611aa6576000805460ff1961ff0019909116610100171660011790555b611ab86000611ab3610ead565b611ec0565b611ae47f9f2df0fed2c77648de5860a4cc508cd0818c85b8b8a1ab4ceeef8d981c8956a6611ab3610ead565b610a567f65d7a28e3265b37a6474929f336521b332c1681b933f6cb9f3376673440d862a611ab3610ead565b6000610ba68284612bd8565b6000610ba68284612c17565b81546000908210611b4b5760405162461bcd60e51b815260040161068c906122ef565b826000018281548110611b6e57634e487b7160e01b600052603260045260246000fd5b9060005260206000200154905092915050565b5490565b600054610100900460ff1680611b9e575060005460ff16155b611bba5760405162461bcd60e51b815260040161068c90612654565b600054610100900460ff16158015611be5576000805460ff1961ff0019909116610100171660011790555b611c117fbcaa5c4620c62b2fedc77ef4fe401724814aeef811d907416a737179a85b1ab2611ab3610ead565b611c2e739d1cb8509a7b60421ab28492ce05e06f52ddf727610720565b610e436107d0610936565b60606000611c48836002612bf8565b611c53906002612bc0565b67ffffffffffffffff811115611c7957634e487b7160e01b600052604160045260246000fd5b6040519080825280601f01601f191660200182016040528015611ca3576020820181803683370190505b5090507f300000000000000000000000000000000000000000000000000000000000000081600081518110611ce857634e487b7160e01b600052603260045260246000fd5b60200101907effffffffffffffffffffffffffffffffffffffffffffffffffffffffffffff1916908160001a9053507f780000000000000000000000000000000000000000000000000000000000000081600181518110611d5957634e487b7160e01b600052603260045260246000fd5b60200101907effffffffffffffffffffffffffffffffffffffffffffffffffffffffffffff1916908160001a9053506000611d95846002612bf8565b611da0906001612bc0565b90505b6001811115611e59577f303132333435363738396162636465660000000000000000000000000000000085600f1660108110611def57634e487b7160e01b600052603260045260246000fd5b1a60f81b828281518110611e1357634e487b7160e01b600052603260045260246000fd5b60200101907effffffffffffffffffffffffffffffffffffffffffffffffffffffffffffff1916908160001a90535060049490941c93611e5281612c5e565b9050611da3565b508315610ba65760405162461bcd60e51b815260040161068c9061234c565b60009081526001919091016020526040902054151590565b611e9b838383610716565b611ea3610a6c565b156107165760405162461bcd60e51b815260040161068c90612b44565b6106fe8282610906828261163e565b828054611edb90612c75565b90600052602060002090601f016020900481019282611efd5760008555611f43565b82601f10611f1657805160ff1916838001178555611f43565b82800160010185558215611f43579182015b82811115611f43578251825591602001919060010190611f28565b50611f4f929150611f53565b5090565b5b80821115611f4f5760008155600101611f54565b80356001600160a01b038116811461055357600080fd5b600082601f830112611f8f578081fd5b813567ffffffffffffffff80821115611faa57611faa612cc6565b6040516020601f19601f8501168201018181108382111715611fce57611fce612cc6565b604052828152848301602001861015611fe5578384fd5b82602086016020830137918201602001929092529392505050565b600060208284031215612011578081fd5b610ba682611f68565b6000806040838503121561202c578081fd5b61203583611f68565b915061204360208401611f68565b90509250929050565b600080600060608486031215612060578081fd5b61206984611f68565b925061207760208501611f68565b9150604084013590509250925092565b60008060408385031215612099578182fd5b6120a283611f68565b946020939093013593505050565b6000806000606084860312156120c4578283fd5b6120cd84611f68565b925060208401359150604084013580151581146120e8578182fd5b809150509250925092565b600060208284031215612104578081fd5b5035919050565b6000806040838503121561211d578182fd5b8235915061204360208401611f68565b6000806040838503121561213f578182fd5b50508035926020909101359150565b60006020828403121561215f578081fd5b81357fffffffff0000000000000000000000000000000000000000000000000000000081168114610ba6578182fd5b600080604083850312156121a0578182fd5b823567ffffffffffffffff808211156121b7578384fd5b6121c386838701611f7f565b935060208501359150808211156121d8578283fd5b506121e585828601611f7f565b9150509250929050565b600060208284031215612200578081fd5b813563ffffffff81168114610ba6578182fd5b60007f416363657373436f6e74726f6c3a206163636f756e74200000000000000000008252835161224b816017850160208801612c2e565b7f206973206d697373696e6720726f6c65200000000000000000000000000000006017918401918201528351612288816028840160208801612c2e565b01602801949350505050565b6001600160a01b0391909116815260200190565b901515815260200190565b90815260200190565b60006020825282518060208401526122db816040850160208701612c2e565b601f01601f19169190910160400192915050565b60208082526022908201527f456e756d657261626c655365743a20696e646578206f7574206f6620626f756e60408201527f6473000000000000000000000000000000000000000000000000000000000000606082015260800190565b6020808252818101527f537472696e67733a20686578206c656e67746820696e73756666696369656e74604082015260600190565b60208082526023908201527f45524332303a207472616e7366657220746f20746865207a65726f206164647260408201527f6573730000000000000000000000000000000000000000000000000000000000606082015260800190565b60208082526014908201527f5061757361626c653a206e6f7420706175736564000000000000000000000000604082015260600190565b60208082526031908201527f546f6b656e207472616e73666572206665652064697669736f72206d7573742060408201527f62652067726561746572207468616e2030000000000000000000000000000000606082015260800190565b60208082526022908201527f45524332303a206275726e20616d6f756e7420657863656564732062616c616e60408201527f6365000000000000000000000000000000000000000000000000000000000000606082015260800190565b60208082526039908201527f45524332305072657365744d696e7465725061757365723a206d75737420686160408201527f76652070617573657220726f6c6520746f20756e706175736500000000000000606082015260800190565b60208082526022908201527f45524332303a20617070726f766520746f20746865207a65726f20616464726560408201527f7373000000000000000000000000000000000000000000000000000000000000606082015260800190565b60208082526026908201527f45524332303a207472616e7366657220616d6f756e742065786365656473206260408201527f616c616e63650000000000000000000000000000000000000000000000000000606082015260800190565b60208082526010908201527f5061757361626c653a2070617573656400000000000000000000000000000000604082015260600190565b6020808252601b908201527f7a65726f2061646472657373206973206e6f7420616c6c6f7765640000000000604082015260600190565b6020808252602e908201527f496e697469616c697a61626c653a20636f6e747261637420697320616c72656160408201527f647920696e697469616c697a6564000000000000000000000000000000000000606082015260800190565b60208082526023908201527f43616c6c6572206d75737420686176652061646d696e20726f6c6520746f206d60408201527f696e740000000000000000000000000000000000000000000000000000000000606082015260800190565b60208082526028908201527f45524332303a207472616e7366657220616d6f756e742065786365656473206160408201527f6c6c6f77616e6365000000000000000000000000000000000000000000000000606082015260800190565b60208082526036908201527f45524332305072657365744d696e7465725061757365723a206d75737420686160408201527f7665206d696e74657220726f6c6520746f206d696e7400000000000000000000606082015260800190565b60208082526024908201527f45524332303a206275726e20616d6f756e74206578636565647320616c6c6f7760408201527f616e636500000000000000000000000000000000000000000000000000000000606082015260800190565b60208082526021908201527f45524332303a206275726e2066726f6d20746865207a65726f2061646472657360408201527f7300000000000000000000000000000000000000000000000000000000000000606082015260800190565b60208082526025908201527f45524332303a207472616e736665722066726f6d20746865207a65726f20616460408201527f6472657373000000000000000000000000000000000000000000000000000000606082015260800190565b60208082526024908201527f45524332303a20617070726f76652066726f6d20746865207a65726f2061646460408201527f7265737300000000000000000000000000000000000000000000000000000000606082015260800190565b60208082526036908201527f43616c6c6572206d75737420686176652061646d696e20726f6c6520746f207360408201527f6574206d696e74696e6720666565206164647265737300000000000000000000606082015260800190565b60208082526037908201527f45524332305072657365744d696e7465725061757365723a206d75737420686160408201527f76652070617573657220726f6c6520746f207061757365000000000000000000606082015260800190565b60208082526036908201527f43616c6c6572206d75737420686176652061646d696e20726f6c6520746f207360408201527f6574206d696e74696e67206665652070657263656e7400000000000000000000606082015260800190565b60208082526025908201527f45524332303a2064656372656173656420616c6c6f77616e63652062656c6f7760408201527f207a65726f000000000000000000000000000000000000000000000000000000606082015260800190565b6020808252602f908201527f416363657373436f6e74726f6c3a2063616e206f6e6c792072656e6f756e636560408201527f20726f6c657320666f722073656c660000000000000000000000000000000000606082015260800190565b6020808252601f908201527f45524332303a206d696e7420746f20746865207a65726f206164647265737300604082015260600190565b6020808252602a908201527f45524332305061757361626c653a20746f6b656e207472616e7366657220776860408201527f696c652070617573656400000000000000000000000000000000000000000000606082015260800190565b63ffffffff91909116815260200190565b60ff91909116815260200190565b60008219821115612bd357612bd3612cb0565b500190565b600082612bf357634e487b7160e01b81526012600452602481fd5b500490565b6000816000190483118215151615612c1257612c12612cb0565b500290565b600082821015612c2957612c29612cb0565b500390565b60005b83811015612c49578181015183820152602001612c31565b83811115612c58576000848401525b50505050565b600081612c6d57612c6d612cb0565b506000190190565b600281046001821680612c8957607f821691505b60208210811415612caa57634e487b7160e01b600052602260045260246000fd5b50919050565b634e487b7160e01b600052601160045260246000fd5b634e487b7160e01b600052604160045260246000fdfea2646970667358221220bbfb029e088f2c0d96a33a81fa736331b8fcdbe024f8093895e04710ea8e0a9564736f6c63430008000033",
  "devdoc": {
    "details": "this contract is a Pausable ERC20 token with Burn and Mint functions. By implementing EnhancedMinterPauser this contract also includes external methods for setting a new implementation contract for the Proxy. NOTE: All calls to this contract should be made through the proxy, including admin actions. Any call to transfer against this contract should fail.",
    "kind": "dev",
    "methods": {
      "allowance(address,address)": {
        "details": "See {IERC20-allowance}."
      },
      "approve(address,uint256)": {
        "details": "See {IERC20-approve}. Requirements: - `spender` cannot be the zero address."
      },
      "balanceOf(address)": {
        "details": "See {IERC20-balanceOf}."
      },
      "burn(uint256)": {
        "details": "Destroys `amount` tokens from the caller. See {ERC20-_burn}."
      },
      "burnFrom(address,uint256)": {
        "details": "Destroys `amount` tokens from `account`, deducting from the caller's allowance. See {ERC20-_burn} and {ERC20-allowance}. Requirements: - the caller must have allowance for ``accounts``'s tokens of at least `amount`."
      },
      "decimals()": {
        "details": "Returns the number of decimals used to get its user representation. For example, if `decimals` equals `2`, a balance of `505` tokens should be displayed to a user as `5,05` (`505 / 10 ** 2`). Tokens usually opt for a value of 18, imitating the relationship between Ether and Wei. This is the value {ERC20} uses, unless this function is overridden; NOTE: This information is only used for _display_ purposes: it in no way affects any of the arithmetic of the contract, including {IERC20-balanceOf} and {IERC20-transfer}."
      },
      "decreaseAllowance(address,uint256)": {
        "details": "Atomically decreases the allowance granted to `spender` by the caller. This is an alternative to {approve} that can be used as a mitigation for problems described in {IERC20-approve}. Emits an {Approval} event indicating the updated allowance. Requirements: - `spender` cannot be the zero address. - `spender` must have allowance for the caller of at least `subtractedValue`."
      },
      "getRoleAdmin(bytes32)": {
        "details": "Returns the admin role that controls `role`. See {grantRole} and {revokeRole}. To change a role's admin, use {_setRoleAdmin}."
      },
      "getRoleMember(bytes32,uint256)": {
        "details": "Returns one of the accounts that have `role`. `index` must be a value between 0 and {getRoleMemberCount}, non-inclusive. Role bearers are not sorted in any particular way, and their ordering may change at any point. WARNING: When using {getRoleMember} and {getRoleMemberCount}, make sure you perform all queries on the same block. See the following https://forum.openzeppelin.com/t/iterating-over-elements-on-enumerableset-in-openzeppelin-contracts/2296[forum post] for more information."
      },
      "getRoleMemberCount(bytes32)": {
        "details": "Returns the number of accounts that have `role`. Can be used together with {getRoleMember} to enumerate all bearers of a role."
      },
      "grantRole(bytes32,address)": {
        "details": "Overload {grantRole} to track enumerable memberships"
      },
      "hasRole(bytes32,address)": {
        "details": "Returns `true` if `account` has been granted `role`."
      },
      "increaseAllowance(address,uint256)": {
        "details": "Atomically increases the allowance granted to `spender` by the caller. This is an alternative to {approve} that can be used as a mitigation for problems described in {IERC20-approve}. Emits an {Approval} event indicating the updated allowance. Requirements: - `spender` cannot be the zero address."
      },
      "mint(address,uint256)": {
        "details": "Creates `amount` new tokens for `to`. See {ERC20-_mint}. Requirements: - the caller must have the `MINTER_ROLE`."
      },
      "mintWithFee(address,uint256)": {
        "details": "mint tokens substract the fee, send the fee to the fee wallet and send the final amount to the given address"
      },
      "mintWithoutDecimals(address,uint256,bool)": {
        "details": "minting without 18 decimal places for convenience if withFee = true calls the mintWithFee function else sends the minted tokens without substracting a fee"
      },
      "name()": {
        "details": "Returns the name of the token."
      },
      "pause()": {
        "details": "Pauses all token transfers. See {ERC20Pausable} and {Pausable-_pause}. Requirements: - the caller must have the `PAUSER_ROLE`."
      },
      "paused()": {
        "details": "Returns true if the contract is paused, and false otherwise."
      },
      "renounceRole(bytes32,address)": {
        "details": "Overload {renounceRole} to track enumerable memberships"
      },
      "revokeRole(bytes32,address)": {
        "details": "Overload {revokeRole} to track enumerable memberships"
      },
      "setFeeWalletAddress(address)": {
        "details": "set the wallet address where fees will be collected"
      },
      "setTransferFeeDivisor(uint32)": {
        "details": "sets the transfer fee example: divisor 2000 would equal to 0,05 percent; 1/2000 = 0,05/100"
      },
      "supportsInterface(bytes4)": {
        "details": "See {IERC165-supportsInterface}."
      },
      "symbol()": {
        "details": "Returns the symbol of the token, usually a shorter version of the name."
      },
      "totalSupply()": {
        "details": "See {IERC20-totalSupply}."
      },
      "transfer(address,uint256)": {
        "details": "See {IERC20-transfer}. Requirements: - `recipient` cannot be the zero address. - the caller must have a balance of at least `amount`."
      },
      "transferFrom(address,address,uint256)": {
        "details": "See {IERC20-transferFrom}. Emits an {Approval} event indicating the updated allowance. This is not required by the EIP. See the note at the beginning of {ERC20}. Requirements: - `sender` and `recipient` cannot be the zero address. - `sender` must have a balance of at least `amount`. - the caller must have allowance for ``sender``'s tokens of at least `amount`."
      },
      "unpause()": {
        "details": "Unpauses all token transfers. See {ERC20Pausable} and {Pausable-_unpause}. Requirements: - the caller must have the `PAUSER_ROLE`."
      }
    },
    "title": "NNN Gold Token",
    "version": 1
  },
  "userdoc": {
    "kind": "user",
    "methods": {},
    "version": 1
  },
  "storageLayout": {
    "storage": [
      {
        "astId": 622,
        "contract": "src/NNNToken.sol:NNNToken",
        "label": "_initialized",
        "offset": 0,
        "slot": "0",
        "type": "t_bool"
      },
      {
        "astId": 625,
        "contract": "src/NNNToken.sol:NNNToken",
        "label": "_initializing",
        "offset": 1,
        "slot": "0",
        "type": "t_bool"
      },
      {
        "astId": 1804,
        "contract": "src/NNNToken.sol:NNNToken",
        "label": "__gap",
        "offset": 0,
        "slot": "1",
        "type": "t_array(t_uint256)50_storage"
      },
      {
        "astId": 2053,
        "contract": "src/NNNToken.sol:NNNToken",
        "label": "__gap",
        "offset": 0,
        "slot": "51",
        "type": "t_array(t_uint256)50_storage"
      },
      {
        "astId": 307,
        "contract": "src/NNNToken.sol:NNNToken",
        "label": "_roles",
        "offset": 0,
        "slot": "101",
        "type": "t_mapping(t_bytes32,t_struct(RoleData)302_storage)"
      },
      {
        "astId": 615,
        "contract": "src/NNNToken.sol:NNNToken",
        "label": "__gap",
        "offset": 0,
        "slot": "102",
        "type": "t_array(t_uint256)49_storage"
      },
      {
        "astId": 62,
        "contract": "src/NNNToken.sol:NNNToken",
        "label": "_roleMembers",
        "offset": 0,
        "slot": "151",
        "type": "t_mapping(t_bytes32,t_struct(AddressSet)2664_storage)"
      },
      {
        "astId": 219,
        "contract": "src/NNNToken.sol:NNNToken",
        "label": "__gap",
        "offset": 0,
        "slot": "152",
        "type": "t_array(t_uint256)49_storage"
      },
      {
        "astId": 794,
        "contract": "src/NNNToken.sol:NNNToken",
        "label": "_balances",
        "offset": 0,
        "slot": "201",
        "type": "t_mapping(t_address,t_uint256)"
      },
      {
        "astId": 800,
        "contract": "src/NNNToken.sol:NNNToken",
        "label": "_allowances",
        "offset": 0,
        "slot": "202",
        "type": "t_mapping(t_address,t_mapping(t_address,t_uint256))"
      },
      {
        "astId": 802,
        "contract": "src/NNNToken.sol:NNNToken",
        "label": "_totalSupply",
        "offset": 0,
        "slot": "203",
        "type": "t_uint256"
      },
      {
        "astId": 804,
        "contract": "src/NNNToken.sol:NNNToken",
        "label": "_name",
        "offset": 0,
        "slot": "204",
        "type": "t_string_storage"
      },
      {
        "astId": 806,
        "contract": "src/NNNToken.sol:NNNToken",
        "label": "_symbol",
        "offset": 0,
        "slot": "205",
        "type": "t_string_storage"
      },
      {
        "astId": 1308,
        "contract": "src/NNNToken.sol:NNNToken",
        "label": "__gap",
        "offset": 0,
        "slot": "206",
        "type": "t_array(t_uint256)45_storage"
      },
      {
        "astId": 1472,
        "contract": "src/NNNToken.sol:NNNToken",
        "label": "__gap",
        "offset": 0,
        "slot": "251",
        "type": "t_array(t_uint256)50_storage"
      },
      {
        "astId": 683,
        "contract": "src/NNNToken.sol:NNNToken",
        "label": "_paused",
        "offset": 0,
        "slot": "301",
        "type": "t_bool"
      },
      {
        "astId": 774,
        "contract": "src/NNNToken.sol:NNNToken",
        "label": "__gap",
        "offset": 0,
        "slot": "302",
        "type": "t_array(t_uint256)49_storage"
      },
      {
        "astId": 1537,
        "contract": "src/NNNToken.sol:NNNToken",
        "label": "__gap",
        "offset": 0,
        "slot": "351",
        "type": "t_array(t_uint256)50_storage"
      },
      {
        "astId": 1759,
        "contract": "src/NNNToken.sol:NNNToken",
        "label": "__gap",
        "offset": 0,
        "slot": "401",
        "type": "t_array(t_uint256)50_storage"
      },
      {
        "astId": 2910,
        "contract": "src/NNNToken.sol:NNNToken",
        "label": "tokenTransferFeeDivisor",
        "offset": 0,
        "slot": "451",
        "type": "t_uint32"
      },
      {
        "astId": 2912,
        "contract": "src/NNNToken.sol:NNNToken",
        "label": "feeAddress",
        "offset": 4,
        "slot": "451",
        "type": "t_address"
      },
      {
        "astId": 3188,
        "contract": "src/NNNToken.sol:NNNToken",
        "label": "__gap",
        "offset": 0,
        "slot": "452",
        "type": "t_array(t_uint256)50_storage"
      }
    ],
    "types": {
      "t_address": {
        "encoding": "inplace",
        "label": "address",
        "numberOfBytes": "20"
      },
      "t_array(t_bytes32)dyn_storage": {
        "base": "t_bytes32",
        "encoding": "dynamic_array",
        "label": "bytes32[]",
        "numberOfBytes": "32"
      },
      "t_array(t_uint256)45_storage": {
        "base": "t_uint256",
        "encoding": "inplace",
        "label": "uint256[45]",
        "numberOfBytes": "1440"
      },
      "t_array(t_uint256)49_storage": {
        "base": "t_uint256",
        "encoding": "inplace",
        "label": "uint256[49]",
        "numberOfBytes": "1568"
      },
      "t_array(t_uint256)50_storage": {
        "base": "t_uint256",
        "encoding": "inplace",
        "label": "uint256[50]",
        "numberOfBytes": "1600"
      },
      "t_bool": {
        "encoding": "inplace",
        "label": "bool",
        "numberOfBytes": "1"
      },
      "t_bytes32": {
        "encoding": "inplace",
        "label": "bytes32",
        "numberOfBytes": "32"
      },
      "t_mapping(t_address,t_bool)": {
        "encoding": "mapping",
        "key": "t_address",
        "label": "mapping(address => bool)",
        "numberOfBytes": "32",
        "value": "t_bool"
      },
      "t_mapping(t_address,t_mapping(t_address,t_uint256))": {
        "encoding": "mapping",
        "key": "t_address",
        "label": "mapping(address => mapping(address => uint256))",
        "numberOfBytes": "32",
        "value": "t_mapping(t_address,t_uint256)"
      },
      "t_mapping(t_address,t_uint256)": {
        "encoding": "mapping",
        "key": "t_address",
        "label": "mapping(address => uint256)",
        "numberOfBytes": "32",
        "value": "t_uint256"
      },
      "t_mapping(t_bytes32,t_struct(AddressSet)2664_storage)": {
        "encoding": "mapping",
        "key": "t_bytes32",
        "label": "mapping(bytes32 => struct EnumerableSetUpgradeable.AddressSet)",
        "numberOfBytes": "32",
        "value": "t_struct(AddressSet)2664_storage"
      },
      "t_mapping(t_bytes32,t_struct(RoleData)302_storage)": {
        "encoding": "mapping",
        "key": "t_bytes32",
        "label": "mapping(bytes32 => struct AccessControlUpgradeable.RoleData)",
        "numberOfBytes": "32",
        "value": "t_struct(RoleData)302_storage"
      },
      "t_mapping(t_bytes32,t_uint256)": {
        "encoding": "mapping",
        "key": "t_bytes32",
        "label": "mapping(bytes32 => uint256)",
        "numberOfBytes": "32",
        "value": "t_uint256"
      },
      "t_string_storage": {
        "encoding": "bytes",
        "label": "string",
        "numberOfBytes": "32"
      },
      "t_struct(AddressSet)2664_storage": {
        "encoding": "inplace",
        "label": "struct EnumerableSetUpgradeable.AddressSet",
        "members": [
          {
            "astId": 2663,
            "contract": "src/NNNToken.sol:NNNToken",
            "label": "_inner",
            "offset": 0,
            "slot": "0",
            "type": "t_struct(Set)2389_storage"
          }
        ],
        "numberOfBytes": "64"
      },
      "t_struct(RoleData)302_storage": {
        "encoding": "inplace",
        "label": "struct AccessControlUpgradeable.RoleData",
        "members": [
          {
            "astId": 299,
            "contract": "src/NNNToken.sol:NNNToken",
            "label": "members",
            "offset": 0,
            "slot": "0",
            "type": "t_mapping(t_address,t_bool)"
          },
          {
            "astId": 301,
            "contract": "src/NNNToken.sol:NNNToken",
            "label": "adminRole",
            "offset": 0,
            "slot": "1",
            "type": "t_bytes32"
          }
        ],
        "numberOfBytes": "64"
      },
      "t_struct(Set)2389_storage": {
        "encoding": "inplace",
        "label": "struct EnumerableSetUpgradeable.Set",
        "members": [
          {
            "astId": 2384,
            "contract": "src/NNNToken.sol:NNNToken",
            "label": "_values",
            "offset": 0,
            "slot": "0",
            "type": "t_array(t_bytes32)dyn_storage"
          },
          {
            "astId": 2388,
            "contract": "src/NNNToken.sol:NNNToken",
            "label": "_indexes",
            "offset": 0,
            "slot": "1",
            "type": "t_mapping(t_bytes32,t_uint256)"
          }
        ],
        "numberOfBytes": "64"
      },
      "t_uint256": {
        "encoding": "inplace",
        "label": "uint256",
        "numberOfBytes": "32"
      },
      "t_uint32": {
        "encoding": "inplace",
        "label": "uint32",
        "numberOfBytes": "4"
      }
    }
  }
}